:020000040800F2
:10000000000008242D270008A5250008A7250008C2
:10001000A9250008AB250008AD2500080000000058
:10002000000000000000000000000000F19A00083D
:10003000AF25000800000000919B0008B1250008D2
:100040007D2700087D2700087D2700087D27000800
:100050007D2700087D2700087D2700087D270008F0
:100060007D2700087D2700087D270008C925000896
:10007000D9250008E92500087D2700087D2700080C
:100080007D2700087D2700087D2700087D270008C0
:100090007D2700087D2700087D2700087D270008B0
:1000A0007D2700087D2700087D2700087D270008A0
:1000B0007D2700087D2700087D2700087D27000890
:1000C0007D2700087D2700087D2700087D27000880
:1000D0007D2700087D2700087D2700087D27000870
:1000E0007D2700087D270008000000007D2700080C
:1000F0007D2700087D2700087D2700087D27000850
:100100007D270008F92500087D2700087D270008C5
:100110007D2700087D2700087D2700087D2700082F
:100120007D2700087D2700087D2700087D2700081F
:100130007D2700087D2700087D2700087D2700080F
:1001400000000000000000000000000000000000AF
:100150007D2700087D2700087D2700087D270008EF
:100160007D2700087D2700087D2700087D270008DF
:100170007D2700087D2700087D2700087D270008CF
:100180007D2700087D2700087D2700087D270008BF
:100190007D2700087D2700087D2700087D270008AF
:1001A0007D2700087D2700087D2700087D2700089F
:1001B0007D2700087D2700087D2700087D2700088F
:1001C0007D2700087D2700087D2700087D2700087F
:1001D0007D2700087D2700087D2700087D2700086F
:1001E0007D2700087D2700087D2700087D2700085F
:1001F0007D2700087D2700087D2700087D2700084F
:100200007D2700087D2700087D2700087D2700083E
:100210007D2700087D2700087D2700087D2700082E
:100220007D2700087D27000809260008000000003F
:100230007D2700087D270008000000007D270008BA
:100240007D2700087D2700087D2700087D270008FE
:100250007D2700087D2700087D2700087D270008EE
:100260007D2700087D2700087D2700087D270008DE
:100270007D2700087D2700087D270008000000007A
:100280007D2700087D2700087D270008000000006A
:08029000000000007D270008BA
:1002A00010B5054C237833B9044B13B10448AFF3B0
:1002B00000800123237010BD6008002400000000AE
:1002C00080C8000808B5034B1BB103490348AFF3CE
:1002D000008008BD000000006408002480C80008F9
:1002E00081F0004102E000BF83F0004330B54FEAE7
:1002F00041044FEA430594EA050F08BF90EA020F54
:100300001FBF54EA000C55EA020C7FEA645C7FEAE6
:10031000655C00F0E2804FEA5454D4EB5555B8BF09
:100320006D420CDD2C4480EA020281EA030382EA7A
:10033000000083EA010180EA020281EA0303362D0C
:1003400088BF30BD11F0004F4FEA01314FF4801CDF
:100350004CEA113102D0404261EB410113F0004FF1
:100360004FEA03334CEA133302D0524263EB4303A8
:1003700094EA050F00F0A780A4F10104D5F1200E46
:100380000DDB02FA0EFC22FA05F2801841F10001A1
:1003900003FA0EF2801843FA05F359410EE0A5F175
:1003A00020050EF1200E012A03FA0EFC28BF4CF0A6
:1003B000020C43FA05F3C01851EBE37101F000455C
:1003C00007D54FF0000EDCF1000C7EEB00006EEB69
:1003D0000101B1F5801F1BD3B1F5001F0CD34908F3
:1003E0005FEA30004FEA3C0C04F101044FEA44524A
:1003F00012F5800F80F09A80BCF1004F08BF5FEAD1
:10040000500C50F1000041EB045141EA050130BDB0
:100410005FEA4C0C404141EB0101013C28BFB1F5C2
:10042000801FE9D291F0000F04BF01460020B1FA0D
:1004300081F308BF2033A3F10B03B3F120020CDAE0
:100440000C3208DD02F1140CC2F10C0201FA0CF0BE
:1004500021FA02F10CE002F11402D8BFC2F1200C23
:1004600001FA02F120FA0CFCDCBF41EA0C019040D9
:10047000E41AA2BF01EB0451294330BD6FEA040422
:100480001F3C1CDA0C340EDC04F11404C4F120020D
:1004900020FA04F001FA02F340EA030021FA04F31F
:1004A00045EA030130BDC4F10C04C4F1200220FA76
:1004B00002F001FA04F340EA0300294630BD21FAB4
:1004C00004F0294630BD94F0000F83F4801306BF7A
:1004D00081F480110134013D4EE77FEA645C18BF6E
:1004E0007FEA655C29D094EA050F08BF90EA020F05
:1004F00005D054EA000C04BF1946104630BD91EAFD
:10050000030F1EBF0021002030BD5FEA545C05D1FF
:100510004000494128BF41F0004130BD14F580043E
:100520003CBF01F5801130BD01F0004545F0FE41B2
:1005300041F470014FF0000030BD7FEA645C1ABFE7
:10054000194610467FEA655C1CBF0B46024650EA1E
:10055000013406BF52EA033591EA030F41F400214A
:1005600030BD00BF90F0000F04BF0021704730B5D0
:100570004FF4806404F132044FF000054FF00001A5
:1005800050E700BF90F0000F04BF0021704730B566
:100590004FF4806404F1320410F0004548BF40423B
:1005A0004FF000013EE700BF42004FEAE2014FEA90
:1005B00031014FEA02701FBF12F07F4393F07F4F6B
:1005C00081F06051704732F07F4208BF704793F06E
:1005D0007F4F04BF41F40021704730B54FF4607481
:1005E00001F0004521F000411CE700BF50EA010284
:1005F00008BF704730B54FF000050AE050EA01022D
:1006000008BF704730B511F0004502D5404261EB9C
:1006100041014FF4806404F132045FEA915C3FF4DD
:10062000D8AE4FF003025FEADC0C18BF03325FEA7A
:10063000DC0C18BF033202EBDC02C2F1200300FA2B
:1006400003FC20FA02F001FA03FE40EA0E0021FA50
:1006500002F11444BDE600BF70B54FF0FF0C4CF43E
:10066000E06C1CEA11541DBF1CEA135594EA0C0FF0
:1006700095EA0C0F00F0DEF82C4481EA030621EA2B
:100680004C5123EA4C5350EA013518BF52EA033566
:1006900041F4801143F4801338D0A0FB02CE4FF018
:1006A0000005E1FB02E506F00042E0FB03E54FF048
:1006B0000006E1FB03569CF0000F18BF4EF0010E40
:1006C000A4F1FF04B6F5007F64F5407404D25FEA3C
:1006D0004E0E6D4146EB060642EAC62141EA5551EF
:1006E0004FEAC52040EA5E504FEACE2EB4F1FD0C31
:1006F00088BFBCF5E06F1ED8BEF1004F08BF5FEAAF
:10070000500E50F1000041EB045170BD06F0004660
:1007100046EA010140EA020081EA0301B4EB5C040D
:10072000C2BFD4EB0C0541EA045170BD41F4801105
:100730004FF0000E013C00F3AB8014F1360FDEBF2A
:10074000002001F0004170BDC4F10004203C35DA06
:100750000C341BDC04F11404C4F1200500FA05F389
:1007600020FA04F001FA05F240EA020001F000422A
:1007700021F0004110EBD37021FA04F642EB0601A0
:100780005EEA430E08BF20EAD37070BDC4F10C04CA
:10079000C4F1200500FA04F320FA05F001FA04F28E
:1007A00040EA020001F0004110EBD37041F100017A
:1007B0005EEA430E08BF20EAD37070BDC4F1200585
:1007C00000FA05F24EEA020E20FA04F301FA05F2ED
:1007D00043EA020321FA04F001F0004121FA04F295
:1007E00020EA020000EBD3705EEA430E08BF20EA65
:1007F000D37070BD94F0000F0FD101F0004640009F
:1008000041EB010111F4801F08BF013CF7D041EA20
:10081000060195F0000F18BF704703F00046520024
:1008200043EB030313F4801F08BF013DF7D043EAF5
:100830000603704794EA0C0F0CEA135518BF95EAAB
:100840000C0F0CD050EA410618BF52EA4306D1D132
:1008500081EA030101F000414FF0000070BD50EA51
:10086000410606BF1046194652EA430619D094EADB
:100870000C0F02D150EA013613D195EA0C0F05D1C5
:1008800052EA03361CBF104619460AD181EA030119
:1008900001F0004141F0FE4141F470014FF00000D1
:1008A00070BD41F0FE4141F4780170BD70B54FF06C
:1008B000FF0C4CF4E06C1CEA11541DBF1CEA1355EC
:1008C00094EA0C0F95EA0C0F00F0A7F8A4EB0504CE
:1008D00081EA030E52EA03354FEA013100F08880C5
:1008E0004FEA03334FF0805545EA131343EA12638E
:1008F0004FEA022245EA111545EA10654FEA002643
:100900000EF000419D4208BF964244F1FD0404F5FB
:10091000407402D25B084FEA3202B61A65EB030557
:100920005B084FEA32024FF480104FF4002CB6EB14
:10093000020E75EB030E22BFB61A754640EA0C0094
:100940005B084FEA3202B6EB020E75EB030E22BFD4
:10095000B61A754640EA5C005B084FEA3202B6EB15
:10096000020E75EB030E22BFB61A754640EA9C00D4
:100970005B084FEA3202B6EB020E75EB030E22BFA4
:10098000B61A754640EADC0055EA060E18D04FEA62
:10099000051545EA16754FEA06164FEAC30343EA02
:1009A00052734FEAC2025FEA1C1CC0D111F4801FCF
:1009B0000BD141EA00014FF000004FF0004CB6E7C8
:1009C00011F4801F04BF01430020B4F1FD0C88BF67
:1009D000BCF5E06F3FF6AFAEB5EB030C04BFB6EB72
:1009E000020C5FEA500C50F1000041EB045170BD65
:1009F0000EF0004E4EEA113114EB5C04C2BFD4EB92
:100A00000C0541EA045170BD41F480114FF0000E15
:100A1000013C90E645EA060E8DE60CEA135594EA91
:100A20000C0F08BF95EA0C0F3FF43BAF94EA0C0F94
:100A30000AD150EA01347FF434AF95EA0C0F7FF409
:100A400025AF104619462CE795EA0C0F06D152EA5D
:100A500003353FF4FDAE1046194622E750EA410641
:100A600018BF52EA43067FF4C5AE50EA41047FF452
:100A70000DAF52EA43057FF4EBAE12E74FEA4102B5
:100A8000B2F1E04324BFB3F5001CDCF1FE5C0DD9EC
:100A900001F0004C4FEAC0024CEA5070B2F1004F36
:100AA00040EB830008BF20F00100704711F0804F39
:100AB00021D113F13872BCBF01F00040704741F4FE
:100AC00080114FEA5252C2F11802C2F1200C10FA02
:100AD0000CF320FA02F018BF40F001004FEAC123E6
:100AE0004FEAD32303FA0CFC40EA0C0023FA02F38A
:100AF0004FEA4303CCE77FEA625307D150EA013360
:100B00001EBF4FF0FE4040F44000704701F000402F
:100B100040F0FE4040F40000704700BF53B94AB9AE
:100B2000002908BF00281CBF4FF0FF314FF0FF30F5
:100B300000F074B9ADF1080C6DE904CE00F006F8D0
:100B4000DDF804E0DDE9022304B070472DE9F04749
:100B5000089D04468E46002B4DD18A42944669D9A1
:100B6000B2FA82F252B101FA02F3C2F1200120FA84
:100B700001F10CFA02FC41EA030E94404FEA1C48D2
:100B8000210CBEFBF8F61FFA8CF708FB16E341EACE
:100B9000034306FB07F199420AD91CEB030306F154
:100BA000FF3080F01F81994240F21C81023E634475
:100BB0005B1AA4B2B3FBF8F008FB103344EA034419
:100BC00000FB07F7A7420AD91CEB040400F1FF332E
:100BD00080F00A81A74240F207816444023840EA6B
:100BE0000640E41B00261DB1D4400023C5E90043A4
:100BF0003146BDE8F0878B4209D9002D00F0EF8027
:100C00000026C5E9000130463146BDE8F087B3FA59
:100C100083F6002E4AD18B4202D3824200F2F98041
:100C2000841A61EB030301209E46002DE0D0C5E944
:100C3000004EDDE702B9FFDEB2FA82F2002A40F090
:100C40009280A1EB0C014FEA1C471FFA8CFE012693
:100C5000200CB1FBF7F307FB131140EA01410EFB37
:100C600003F0884208D91CEB010103F1FF3802D2DE
:100C7000884200F2CB804346091AA4B2B1FBF7F0D8
:100C800007FB101144EA01440EFB00FEA64508D9FB
:100C90001CEB040400F1FF3102D2A64500F2BB8038
:100CA0000846A4EB0E0440EA03409CE7C6F1200787
:100CB000B34022FA07FC4CEA030C20FA07F401FACD
:100CC00006F31C43F9404FEA1C4900FA06F3B1FB56
:100CD000F9F8200C1FFA8CFE09FB181140EA0141BB
:100CE00008FB0EF0884202FA06F20BD91CEB010158
:100CF00008F1FF3A80F08880884240F28580A8F1B0
:100D000002086144091AA4B2B1FBF9F009FB101101
:100D100044EA014100FB0EFE8E4508D91CEB01019F
:100D200000F1FF346CD28E456AD90238614440EA42
:100D30000840A0FB0294A1EB0E01A142C846A646C2
:100D400056D353D05DB1B3EB080261EB0E0101FA4B
:100D500007F722FA06F3F1401F43C5E900710026A8
:100D60003146BDE8F087C2F12003D8400CFA02FCFE
:100D700021FA03F3914001434FEA1C471FFA8CFE0E
:100D8000B3FBF7F007FB10360B0C43EA064300FBFE
:100D90000EF69E4204FA02F408D91CEB030300F19C
:100DA000FF382FD29E422DD9023863449B1B89B253
:100DB000B3FBF7F607FB163341EA034106FB0EF3DC
:100DC0008B4208D91CEB010106F1FF3816D28B4289
:100DD00014D9023E6144C91A46EA004638E72E4655
:100DE000284605E70646E3E61846F8E64B45A9D24D
:100DF000B9EB020864EB0C0E0138A3E74646EAE7BC
:100E0000204694E74046D1E7D0467BE7023B614469
:100E100032E7304609E76444023842E7704700BFD2
:100E2000844641EA000313F003036DD1403A41D3F5
:100E300051F8043B40F8043B51F8043B40F8043BB4
:100E400051F8043B40F8043B51F8043B40F8043BA4
:100E500051F8043B40F8043B51F8043B40F8043B94
:100E600051F8043B40F8043B51F8043B40F8043B84
:100E700051F8043B40F8043B51F8043B40F8043B74
:100E800051F8043B40F8043B51F8043B40F8043B64
:100E900051F8043B40F8043B51F8043B40F8043B54
:100EA00051F8043B40F8043B51F8043B40F8043B44
:100EB000403ABDD2303211D351F8043B40F8043BE4
:100EC00051F8043B40F8043B51F8043B40F8043B24
:100ED00051F8043B40F8043B103AEDD20C3205D3F4
:100EE00051F8043B40F8043B043AF9D2043208D0EC
:100EF000D2071CBF11F8013B00F8013B01D30B885E
:100F000003806046704700BF082A13D38B078DD03B
:100F100010F003038AD0C3F10403D21ADB071CBF0D
:100F200011F8013B00F8013B80D331F8023B20F877
:100F3000023B7BE7043AD9D3013A11F8013B00F8B0
:100F4000013BF9D20B7803704B7843708B78837038
:100F50006046704770470000034B0360034B0B6013
:100F60004FF4807313607047B00C0024B008002465
:100F700038B52DED048B0AF0AFFE9FED518AB0EE2F
:100F8000480A50480AF0F4FDB0EE480A4E480AF00C
:100F9000BBFD642008F056FC0AF02AFE81E00AF04E
:100FA00027FE83E0494C4A4B23604FF07F53A360F8
:100FB000484D494B2B60494BAB60494BD3ED016A1F
:100FC000F2EE047A86EEA77A85ED0C7AD3ED006A0C
:100FD00086EEA77A84ED0C7A9FED428AF0EE480AFD
:100FE00095ED080A40480AF041FC85ED080AF0EE4C
:100FF000480A94ED080A3D480AF038FC84ED080AD6
:1010000095ED080A3A480AF06BFC85ED080A94ED64
:10101000080A38480AF064FC84ED080A28460AF0F9
:10102000B5FCB0EE409A20460AF0B0FCF0EE408AE3
:10103000F0EE480AB0EE490A2F480AF017FCB0EE6D
:10104000409AF0EE480AB0EE680A2C480AF00EFC0E
:10105000F0EE408AB0EE490A29480AF041FCB0EEB1
:10106000408AB0EE680A27480AF03AFC264DD5EDD2
:10107000007A38EE278A254CD4ED008A70EE288A53
:10108000B0EE480A10480AF03FFDB0EE680A0D487D
:101090000AF06EFD85ED008AC4ED008A0A2008F092
:1010A000D1FB1B4B1B68012B3FF479AF184B00227F
:1010B0001A60184B1B68012B3FF474AFEEE700BFBA
:1010C00000000000445D01241C5D0124C85C012473
:1010D0000AD7A33D745C0124AE47E1BD666666BFD6
:1010E000301100243333333FA45B0124D45B01244B
:1010F000045C01243C5C0124BC5B0124EC5B012406
:10110000205C0124585C0124880800248C080024F9
:10111000800800247C08002408B5214E00222149C3
:1011200030460AF089F9204D0022204928460AF06D
:1011300083F91F4C00221F4920460AF07DF91E4A00
:10114000002130460AF090F91C4A002128460AF096
:101150008BF91B4A002120460AF086F930460AF036
:101160008FFA28460AF08CFA20460AF089FA10E035
:10117000144B00221A600221134802F047FE012896
:1011800002D1104B01221A600AF08CFA052008F0F7
:1011900059FB02210C4802F039FE0028EBD1E7E7A9
:1011A000185B0124C1B60008405B0124D1B60008D9
:1011B000F05A0124E1B60008F1B60008C1B70008F2
:1011C00015B80008840800240010025810B510E07B
:1011D0001021094802F027FE0221084802F023FEF0
:1011E000642008F02FFB0134052CF1DD002008F00D
:1011F000C7FB0024F8E700BF000C025800000258AB
:1012000010B501240FE0002454B90E4C0E492046BD
:101210000AF0A8FD1E22002120460BF08FF80124C1
:10122000052008F00FFB1E220649084807F078FC4D
:1012300000231D2BE8DC034AD25C002AE3D10133F2
:10124000F7E700BF9008002430110024EC160024BA
:10125000054B064A1A6000225A609A604FF480419A
:10126000D9601A615A6170474C1300240070005213
:1012700008B50221034802F0D6FD4FF4FA7008F0D9
:10128000E1FAF6E7000002582DE9F04F8DB0002496
:101290000794089409940A940B94684BD3F8E020BF
:1012A00042F01002C3F8E020D3F8E02002F0100270
:1012B0000192019AD3F8E02042F08002C3F8E020C6
:1012C000D3F8E02002F080020292029AD3F8E020E4
:1012D00042F00102C3F8E020D3F8E02002F001025E
:1012E0000392039AD3F8E02042F00402C3F8E0200E
:1012F000D3F8E02002F004020492049AD3F8E0202C
:1013000042F00202C3F8E020D3F8E02002F002022B
:101310000592059AD3F8E02042F00802C3F8E020D5
:10132000D3F8E03003F008030693069BDFF814A11E
:1013300001220221504602F070FDDFF80CB1224676
:101340003021584602F069FD3D4E22464FF4C071EF
:10135000304602F062FDDFF8F48022464FF44C6123
:10136000404602F05AFDDFF8E89022461021484638
:1013700002F053FD082307930894099407A9304607
:1013800002F034FC0125079508940227099707A964
:10139000504602F02BFC0797089509940A9407A978
:1013A000504602F023FC30230793089509940A94D1
:1013B00007A9584602F01AFC4FF4C073079308952A
:1013C00009940A9407A9304602F010FC4FF44063D8
:1013D00007931123089309950A9707A9404602F03D
:1013E00005FC882307930894099507A9484602F04D
:1013F000FDFB10230793089509940A9407A9484612
:1014000002F0F4FB282307930894099507A94046A6
:1014100002F0ECFBC0230793089509940A9407A9EE
:10142000404602F0E3FB07970894099507A9304668
:1014300002F0DCFB0DB0BDE8F08F00BF00440258A5
:101440000010025800000258000802580004025818
:10145000000C025800B583B0134BD3F8D82042F0EB
:101460000102C3F8D820D3F8D83003F00103019368
:10147000019B002205210B2001F016FA0B2001F040
:1014800049FA002205210C2001F00EFA0C2001F08F
:1014900041FA002205210D2001F006FA0D2001F08D
:1014A00039FA03B05DF804FB0044025808B508F0AF
:1014B00031FB0021144808F090F9144B186000210A
:1014C000134808F08AF9134B18600021124808F0FD
:1014D00084F9124B18600021114808F07EF9114B75
:1014E000186008F039FB00210F4808F076F90F4B1F
:1014F000186008F045FA0AF027FA0AF0A3F94FF449
:101500007A7008F09FF9FAE75CC9000840110024DE
:1015100078C900084411002440C900083C11002487
:1015200094C900084C11002424C900083811002473
:1015300072B6FEE700B583B01E4BD3F8D42042F05C
:101540000102C3F8D420D3F8D43003F0010301938F
:10155000019B1948194B03601D23436000238360DE
:10156000C36003610222426108228261C361036297
:101570004FF00072426201228262C36203634363DE
:10158000836302F0B5FC80B9002211460A4802F0DC
:10159000DFFC60B9002206217A2001F085F97A206B
:1015A00001F0B8F903B05DF804FBFFF7C1FFFFF7E6
:1015B000BFFF00BF00440258E01200244000005268
:1015C00008B50848084B0360002303714371436169
:1015D00083610123036201F0BFF900B908BDFFF781
:1015E000A7FF00BF54110024004C025800B58BB077
:1015F00000230793089309930093019302930393A5
:101600000493059306931A481A4A02604360836064
:101610004FF6FF72C2600361836106F0A5FAF0B96C
:1016200000230793099307A9114806F077FCC0B976
:1016300060230093002201920292049269460C48B2
:1016400006F00CFB78B908226946094806F006FB4B
:1016500058B9074800F068FD0BB05DF804FBFFF7D0
:1016600067FFFFF765FFFFF763FFFFF761FF00BF4D
:10167000081600240004004000B58BB00023079337
:1016800008930993009301930293039304930593A2
:1016900006931648164A0260436083604FF6FF7255
:1016A000C2600361836106F05FFAC0B9002307934B
:1016B000099307A90D4806F031FC90B96023009307
:1016C00000220192029204926946084806F0C6FA86
:1016D00048B9064800F028FD0BB05DF804FBFFF7A1
:1016E00027FFFFF725FFFFF723FF00BF5416002455
:1016F0000008004008B51448144B03604FF4800301
:1017000043604FF4003383600323C360002303610D
:1017100043614FF080628261C3610362436283620E
:10172000C3624FF0804242638363C36303644364D4
:101730008364C36403654365836505F04FFF00B9A7
:1017400008BDFFF7F5FE00BFC813002400380040B5
:1017500008B51448144B03604FF4800343604FF402
:10176000003383600323C3600023036143614FF0B0
:1017700080628261C361036243628362C3624FF02D
:10178000804242638363C363036443648364C364CA
:1017900003654365836505F021FF00B908BDFFF7C8
:1017A000C7FE00BF501400240034014000B58BB0C8
:1017B00000230793089309930093019302930393E3
:1017C0000493059306931648164A02600522426068
:1017D0008360154AC2600361836106F0C5F9C8B928
:1017E00000230793099307A90D4806F097FB98B9C2
:1017F0006023009300230193029304930822694617
:10180000074806F02BFA48B9054800F08DFC0BB0EC
:101810005DF804FBFFF78CFEFFF78AFEFFF788FEFA
:10182000A0160024000C00403F0D030000B58BB053
:101830000023079308930993009301930293039362
:101840000493059306931648164A0260436083602A
:101850004FF6FF72C2600361836106F085F9C0B97B
:1018600000230793099307A90D4806F057FB90B989
:101870006023009300220192029204926946084874
:1018800006F0ECF948B9064800F04EFC0BB05DF8E4
:1018900004FBFFF74DFEFFF74BFEFFF749FE00BFCD
:1018A000D81400240018004000B589B0002301932B
:1018B0000293039304930593069307931348144AE2
:1018C0000260436083604FF6FF72C2600361836110
:1018D00006F01AF9A0B90D4806F046F990B9602350
:1018E0000193002202920392059201A9074806F093
:1018F000B5F948B9054800F017FC09B05DF804FBDC
:10190000FFF716FEFFF714FEFFF712FE2415002462
:10191000001C004000B589B000230193029303939B
:1019200004930593069307931348144A0260436097
:1019300083604FF6FF72C2600361836106F0E4F8D2
:10194000A0B90D4806F010F990B960230193002268
:1019500002920392059201A9074806F07FF948B95F
:10196000054800F0E1FB09B05DF804FBFFF7E0FD7E
:10197000FFF7DEFDFFF7DCFD7015002400200040BE
:1019800008B51548154B03604FF4E133436000235D
:101990008360C36003610C2242618361C36103629F
:1019A0004362836207F031F870B900210A4807F0FA
:1019B00022F958B90021084807F042F940B9064811
:1019C00007F0FAF830B908BDFFF7B2FDFFF7B0FD38
:1019D000FFF7AEFDFFF7ACFD14180024004C0040EB
:1019E00008B51548154B03604FF4E13343600023FD
:1019F0008360C36003610C2242618361C36103623F
:101A00004362836207F001F870B900210A4807F0C9
:101A1000F2F858B90021084807F012F940B9064811
:101A200007F0CAF830B908BDFFF782FDFFF780FD67
:101A3000FFF77EFDFFF77CFD801700240044004087
:101A400008B51548154B03604FF4E133436000239C
:101A50008360C36003610C2242618361C3610362DE
:101A60004362836206F0D1FF70B900210A4807F093
:101A7000C2F858B90021084807F0E2F840B9064812
:101A800007F09AF830B908BDFFF752FDFFF750FD97
:101A9000FFF74EFDFFF74CFDA8180024001401408D
:101AA00008B51548154B03604FF4E133436000233C
:101AB0008360C36003610C2242618361C36103627E
:101AC0004362836206F0A1FF70B900210A4807F063
:101AD00092F858B90021084807F0B2F840B9064812
:101AE00007F06AF830B908BDFFF722FDFFF720FDC7
:101AF000FFF71EFDFFF71CFDEC160024001001404F
:101B000010B596B000241394149415940C940D946D
:101B10000E940F941094119412942C22214601A833
:101B20000AF00CFC2148224B03603B234360846095
:101B300044F61F63C36004614461846106F014F8D5
:101B400000282AD100231393159313A9174806F0F0
:101B5000E5F920BB60230C9300220D920E920F92A8
:101B60001092119212920CA9104806F077F8C0B9A1
:101B70000023019302930393049305934FF40052BF
:101B8000069207930B9301A9084806F017FA50B97B
:101B9000064800F0C9FA16B010BDFFF7C9FCFFF700
:101BA000C7FCFFF7C5FCFFF7C3FC00BFBC15002452
:101BB0000040014000B59FB04C2200210BA80AF064
:101BC000BDFB2022002103A80AF0B8FB022002F08E
:101BD000CDFA002300933B4BDA6A22F00102DA626D
:101BE000DB6A03F001030093374B9A6942F44042E9
:101BF0009A619B6903F440430093009B324B9B69BD
:101C000013F4005FFAD0314BD3F8F42042F0020213
:101C1000C3F8F420D3F8F43003F002030193019BDE
:101C200000230293284B9A6942F440429A619B69CF
:101C300003F440430293234BDA6A42F00102DA6272
:101C4000DB6A03F001030293029B1F4B9B6913F4B1
:101C5000005FFAD003230B934FF480330C930123DE
:101C60000E9340230F93022314931593052216928B
:101C7000C02217921893199304231A9308231B93D5
:101C800000231C931D930BA802F09AFAB0B93F23CE
:101C9000039303230493002305930823069340230F
:101CA000079308934FF4806209920A93042103A8D2
:101CB00002F0DAFE20B91FB05DF804FBFFF738FC34
:101CC000FFF736FC00040058004802580044025850
:101CD00000B5B1B0C022002168460AF02FFB4FF4D6
:101CE00088320023CDE90023082302938023039345
:101CF0000223049305930693402307934FF4803304
:101D000014934FF480531893684603F049F910B9BF
:101D100031B05DF804FBFFF70BFC000000B589B0A3
:101D200000F056FDFFF746FFFFF7D2FFFFF7ACFAD2
:101D3000FFF700FCFFF78EFB07F06EFBFFF788FA5A
:101D4000FFF73EFCFFF752FCFFF796FCFFF7D2FCD3
:101D5000FFF7FEFCFFF72AFDFFF768FDFFF7A4FD84
:101D6000FFF7D8FDFFF70CFEFFF73AFEFFF768FE1E
:101D7000FFF796FEFFF7C4FE0E4807F06AFD0E4B14
:101D800018600E4807F065FD0D4B18600DF1040C4E
:101D90000C4C0FCCACE80F0094E807008CE807006F
:101DA000002101A807F019FD074B186007F0FDFCA2
:101DB000FEE700BF1CC900083C19002414C9000834
:101DC0004811002498C800085011002400B583B0C1
:101DD0000A4BD3F8F42042F00202C3F8F420D3F8FF
:101DE000F43003F002030193019B00220F216FF0F6
:101DF000010000F059FD03B05DF804FB00440258F7
:101E000002680A4B9A4200D0704782B0A3F5006383
:101E1000D3F8E02042F40022C3F8E020D3F8E03009
:101E200003F400230193019B02B07047004C025859
:101E30002DE9F04389B0002303930493059306939F
:101E400007930268304B9A4202D009B0BDE8F08394
:101E50002E4BD3F8D42042F48032C3F8D420D3F8E8
:101E6000D42002F480320092009AD3F8E02042F0AD
:101E70000402C3F8E020D3F8E02002F0040201924B
:101E8000019AD3F8E02042F00802C3F8E020D3F82A
:101E9000E03003F008030293029B4FF4885303934E
:101EA000022604964FF00108CDF81480032506950C
:101EB0000C240794DFF85C900DEB0401484601F018
:101EC00095FE4FF4606303930496002705970695EB
:101ED00007940DEB0401484601F088FE04230393A8
:101EE0000496CDF81480069507940DEB040108487C
:101EF00001F07CFE3A460721312000F0D5FC31206C
:101F000000F008FDA1E700BF007000520044025835
:101F1000000C02580008025810B5BAB0044600215F
:101F200035913691379138913991C02204A80AF041
:101F300005FA23682F4A934204D02F4A934226D0B1
:101F40003AB010BD2D4BD3F8E82042F48042C3F8DC
:101F5000E820D3F8E82002F480420092009AD3F8F7
:101F6000E02042F00202C3F8E020D3F8E03003F0B2
:101F700002030193019B4FF42043359302233693D0
:101F80000523399335A91E4801F030FED8E74FF4F8
:101F900000520023CDE9042304A803F001F830BB6C
:101FA000164BD3F8F02042F40052C3F8F020D3F8D7
:101FB000F02002F400520292029AD3F8E02042F09C
:101FC0001002C3F8E020D3F8E03003F010030393CD
:101FD000039B44233593022336930023379338938E
:101FE0000523399335A9074801F000FEA8E7FFF75C
:101FF0009FFAD5E700380040003401400044025801
:10200000000402580010025886B003682A4A93421E
:1020100019D02A4A934225D0294A934230D0294ADE
:1020200093423BD0284A93421AD1284BD3F8F02050
:1020300042F48032C3F8F020D3F8F03003F4803358
:102040000593059B0CE0214BD3F8E82042F00202F7
:10205000C3F8E820D3F8E83003F002030193019BB2
:1020600006B07047194BD3F8E82042F00402C3F8D9
:10207000E820D3F8E83003F004030293029BEFE773
:10208000124BD3F8E82042F00802C3F8E820D3F856
:10209000E83003F008030393039BE1E70B4BD3F80D
:1020A000E82042F04002C3F8E820D3F8E83003F01B
:1020B00040030493049BD3E7000400400008004061
:1020C000000C00400018004000400140004402584D
:1020D00082B00368114A934204D0114A93420FD050
:1020E00002B070470F4BD3F8E82042F08002C3F8EB
:1020F000E820D3F8E83003F080030093009BEFE77B
:10210000084BD3F8E82042F48072C3F8E820D3F8F3
:10211000E83003F480730193019BE1E7001C004069
:10212000002000400044025800B58DB00023079302
:10213000089309930A930B9303685F4A934215D05F
:102140005E4A934229D05E4A93423ED05D4A934212
:1021500052D05D4A934267D05C4A93427CD05C4A3D
:10216000934200F091800DB05DF804FB594BD3F819
:10217000E02042F00202C3F8E020D3F8E03003F0A0
:1021800002030093009B11230793022308930B93F0
:1021900007A9514801F02AFDE5E74E4BD3F8E020AE
:1021A00042F00802C3F8E020D3F8E03003F008035F
:1021B0000193019B4FF480530793022308930B93E1
:1021C00007A9464801F012FDCDE7424BD3F8E020C5
:1021D00042F00102C3F8E020D3F8E03003F001033D
:1021E0000293029B04230793022308930B9307A9EE
:1021F0003B4801F0FBFCB6E7364BD3F8E02042F059
:102200000202C3F8E020D3F8E03003F002030393A6
:10221000039B4FF480430793022308930B9307A972
:102220002D4801F0E3FC9EE72A4BD3F8E02042F072
:102230000102C3F8E020D3F8E03003F00103049377
:10224000049B402307930223089309230B9307A9B8
:10225000234801F0CBFC86E71E4BD3F8E02042F088
:102260000102C3F8E020D3F8E03003F00103059346
:10227000059B802307930223089309230B9307A947
:10228000174801F0B3FC6EE7124BD3F8E02042F0A0
:102290001002C3F8E020D3F8E03003F010030693F7
:1022A000069B202307930223089304230B9307A97B
:1022B0000C4801F09BFC56E7000400400008004079
:1022C000000C004000180040001C004000200040AE
:1022D000004001400044025800040258000C02581B
:1022E000000002580010025830B5BFB0044600216B
:1022F00039913A913B913C913D91C02208A80AF056
:102300001DF82368984A93420CD0984A934258D0BB
:10231000974A934200F0A880964A934200F0F080DA
:102320003FB030BD02220023CDE9082308A802F007
:1023300037FE00283FD1904BD3F8E82042F400222A
:10234000C3F8E820D3F8E82002F400220092009AB3
:10235000D3F8E02042F00202C3F8E020D3F8E030E6
:1023600003F002030193019B4FF44073399302235E
:102370003A9300253B953C9508233D9339A97F4826
:1023800001F034FC7E487F4B03603F23436085604F
:10239000C5604FF480630361456185614FF48073CC
:1023A000C3610562456200F067FD38B9744BC4F83B
:1023B00080309C63B4E7FFF7BBF8BCE7FFF7B8F8E1
:1023C000F4E701220023CDE908231823279308A866
:1023D00002F0E6FD002841D1674BD3F8F02042F02F
:1023E0001002C3F8F020D3F8F02002F0100202929D
:1023F000029AD3F8E02042F00102C3F8E020D3F8BB
:10240000E03003F001030393039B4FF4C06339935F
:1024100002233A9300253B953C9507233D9339A928
:10242000594801F0E3FB5948594B036029234360A5
:102430008560C5604FF480630361456185614FF439
:102440008073C3614FF400330362456200F014FDF2
:1024500038B94E4BC4F880309C6361E7FFF768F8E9
:10246000BAE7FFF765F8F4E702220023CDE9082375
:1024700008A802F095FD00283CD13F4BD3F8E82096
:1024800042F40032C3F8E820D3F8E82002F4003226
:102490000492049AD3F8E02042F00802C3F8E02046
:1024A000D3F8E03003F008030593059B60233993CC
:1024B00002233A9300253B953C9507233D9339A988
:1024C000344801F093FB3448344B03602B234360C2
:1024D0008560C5604FF48063036145618561C561B6
:1024E0000562456200F0C8FC38B92B4BC4F8803057
:1024F0009C6315E7FFF71CF8BFE7FFF719F8F4E74F
:1025000001220023CDE908231823279308A802F00D
:1025100047FD30BB184BD3F8F02042F02002C3F83F
:10252000F020D3F8F02002F020020692069AD3F8A9
:10253000E02042F00402C3F8E020D3F8E03003F0DA
:1025400004030793079BC023399302233A93002384
:102550003B933C9307233D9339A9114801F046FB77
:10256000DEE6FEF7E5FFD5E7004C00400010014035
:102570000044004000140140004402580004025886
:10258000781100242800024000000258F0110024B5
:1025900010000240000C0258681200244000024063
:1025A00000080258FEE7FEE7FEE7FEE7FEE7704799
:1025B00008B500F03BF908F0D5FE012800D108BDB0
:1025C00007F018FBFBE7000008B5024800F072FFB7
:1025D00008BD00BFF011002408B5024800F06AFFF2
:1025E00008BD00BF7811002408B5024800F062FF62
:1025F00008BD00BF6812002408B5024804F0D0FEF0
:1026000008BD00BF4C13002408B5024801F0D4FCFB
:1026100008BD00BFE012002410B503460C4A0D4966
:102620000D48006840B10C4800680344521A9342B8
:1026300006D8094A136010BD0748084C0460F2E749
:1026400009F052FE0C2303604FF0FF30F3E700BFA8
:10265000000008240040000040190024B05D01245F
:10266000274AD2F8883043F47003C2F88830254BEB
:102670001B6803F00F03062B06D8224A136823F0C9
:102680000F0343F0070313601F4B1A6842F0010267
:102690001A6000221A6119681C4A0A401A60194B14
:1026A0001B6813F0080F06D0164A136823F00F03B7
:1026B00043F007031360144B00229A61DA611A6237
:1026C000134999621349D962134919635A6399638B
:1026D000DA6319645A64196821F4802119601A6652
:1026E0000E4B1A680E4B1340B3F1005F03D20D4B33
:1026F0000122C3F808210C4B43F2D2021A60704742
:1027000000ED00E000200052004402587FEDF6EAA0
:10271000000202020000FF01800201010010005CC3
:102720000000FFFF0080005100400052DFF834D06D
:10273000FFF796FF0C480D490D4A002302E0D458DC
:10274000C4500433C4188C42F9D30A4A0A4C0023FB
:1027500001E013600432A242FBD309F0CBFDFFF786
:10276000DDFA704700000824000000245C08002403
:1027700034CA000860080024AC5D0124FEE70000B4
:10278000104B1B780BB90120704710B504464FF46D
:102790007A70B0FBF3F30C4A1068B0FBF3F000F072
:1027A000C7F868B90F2C01D901200AE000222146A0
:1027B0004FF0FF3000F078F8044B1C60002000E080
:1027C000012010BD08000024000000240C0000249B
:1027D00010B5032000F056F802F04CF80F498B6951
:1027E000C3F303230E4AD35C03F01F03D8408B6965
:1027F00003F00F03D35C03F01F0320FA03F3094A2D
:102800001360094B18600F20FFF7BAFF10B10124C5
:10281000204610BD0446FFF7D9FAF9E700440258F4
:10282000B0C900080400002400000024034B1B78FA
:10283000034A11680B441360704700BF080000246E
:1028400044190024014B1868704700BF4419002444
:1028500038B50446FFF7F6FF0546B4F1FF3F02D056
:10286000044B1B781C44FFF7EDFF401BA042FAD33A
:1028700038BD00BF08000024014B1868000C7047E9
:102880000010005C0649CB6823F4E0631B041B0CBA
:10289000000200F4E0600343024A1A43CA60704732
:1028A00000ED00E00000FA0500B5174BDB68C3F34C
:1028B0000223C3F1070CBCF1040F28BF4FF0040C36
:1028C00003F1040EBEF1060F14D9033B4FF0FF3E97
:1028D0000EFA0CFC21EA0C0199400EFA03F322EAED
:1028E00003031943002807DB0901C9B2074B195438
:1028F0005DF804FB0023E9E700F00F000901C9B20D
:10290000034B1954F4E700BF00ED00E000E400E0E1
:1029100014ED00E0002807DB00F01F02400901234E
:102920009340024A42F82030704700BF00E100E0C7
:102930000138B0F1807F0BD24FF0E0235861054A97
:10294000F02182F823100020986107221A61704755
:102950000120704700ED00E0002838D010B5044693
:10296000437F1BB30223637723791BBB2368194A78
:102970005A612268936823F018039360637913BB4C
:1029800023684FF0FF321A612268936823F06003D6
:1029900061690B4393602268936823F08003A16907
:1029A0000B43936001236377002010BD0377FFF78B
:1029B00027FAD7E7E268A168204600F00DF8002862
:1029C000DCD00120F1E7236822691A61DCE70120ED
:1029D000704700BFB71DC10411F0010F30D010B413
:1029E0001F231C46013B34B103F01F0C21FA0CFCE1
:1029F0001CF0010FF5D0182A24D8DFE802F00F23CD
:102A00002323232323231D232323232323231923A6
:102A10002323232323230D00062B17D80368596192
:102A200001688B6823F018031A438A6000200AE0CB
:102A3000072BF3D9012006E00F2BEFD9012002E08C
:102A40000120704701205DF8044B70470120FAE730
:102A5000F0B4876D0468664E664DAC4218BFB44250
:102A600042D01835AC423FD01835AC423CD0183576
:102A7000AC4239D01835AC4236D01835AC4233D0E0
:102A80001835AC4230D005F55675AC422CD018350F
:102A9000AC4229D01835AC4226D01835AC4223D0F0
:102AA0001835AC4220D01835AC421DD01835AC4298
:102AB0001AD01835AC4217D04F4DAC4214D0143553
:102AC000AC4211D01435AC420ED01435AC420BD010
:102AD0001435AC4208D01435AC4205D01435AC42A4
:102AE00002D01435AC4207D1446E856E6560C46E69
:102AF00014B1046F456F656004683D4E3D4DAC42B6
:102B000018BFB44252D01835AC424FD01835AC4241
:102B10004CD01835AC4249D01835AC4246D01835A7
:102B2000AC4243D01835AC4240D005F55675AC42A6
:102B30003CD01835AC4239D01835AC4236D01835B7
:102B4000AC4233D01835AC4230D01835AC422DD021
:102B50001835AC422AD01835AC4227D0264E274D26
:102B6000AC4218BFB44211D0254DAC420ED0143542
:102B7000AC420BD01435AC4208D01435AC4205D071
:102B80001435AC4202D01435AC4224D1C46D04F0EB
:102B90001F050124AC407C60046863608368402B9F
:102BA00020D0036899600368DA6014E0C46D04F013
:102BB0001F0C3F2404FA0CF4BC6005682C6824F454
:102BC00080242C60046863608368402B05D0036810
:102BD00099600368DA60F0BC704703689A60036824
:102BE000D960F8E703689A600368D960F3E700BF2B
:102BF0001000024028000240085402581C54025899
:102C00003054025803682749274A934218BF8B4221
:102C10002FD0183293422CD01832934229D0183238
:102C2000934226D01832934223D01832934220D0B8
:102C3000183293421DD002F55672934219D01832C1
:102C4000934216D01832934213D01832934210D0C8
:102C5000183293420DD0183293420AD01832934260
:102C600007D01832934204D023F0FF038365806DB0
:102C7000704710B4D9B210390C4AA2FB0142C2F31A
:102C800002120B4CA25CC2655F2907D9094A1A409F
:102C900004328265806D5DF8044B7047054A1A4026
:102CA0008265F7E71000024028000240ABAAAAAAFA
:102CB000C0C9000800FCFFFF83699BB9836A012B30
:102CC0000AD0022B02D00BB100207047C36A13F068
:102CD000807F2AD100207047C36AB3F1C07F26D01D
:102CE00000207047B3F5005F0AD0836A022B26D913
:102CF000032B26D1C36A13F0807F24D100207047B4
:102D0000836A032B03D8DFE803F01404140A0020BD
:102D10007047C36A13F0807F0DD100207047C36AEB
:102D2000B3F1C07F09D00020704701207047012017
:102D30007047012070470120704701207047012033
:102D40007047002070470120704700000368224947
:102D5000224A934218BF8B4228D01432934225D086
:102D60001432934222D0143293421FD01432934231
:102D70001CD01432934219D01432934216D0DAB2D6
:102D8000103A1749A1FB0212120916491944A82941
:102D90001FD9154B13449B000366144B436602F086
:102DA0001F02012303FA02F282667047DBB2083B7E
:102DB0000F4AA2FB03230F4A02EB13129200026692
:102DC0000D4A4266C3F30413012202FA03F3836639
:102DD00070470832DDE700BF085402581C540258FF
:102DE000ABAAAAAAF0FBFDBF008200108008024037
:102DF000CDCCCCCC009600168058025801794A1EE2
:102E0000072A2CD830B40368154D164CA34218BFBE
:102E1000AB4218D01434A34215D01434A34212D0BC
:102E20001434A3420FD01434A3420CD01434A34260
:102E300009D01434A34206D00B4B0B449B00C3664D
:102E40000A4B036705E00A4B0B449B00C366094B22
:102E50000367012303FA02F2426730BC70477047F0
:102E6000085402581C5402583F8200104009024086
:102E70003F9600164059025870B50446FFF7E2FC31
:102E8000002C00F0B681054623685349534A93420B
:102E900018BF8B420CBF0122002250D030318B4230
:102EA0004DD018318B424AD018318B4247D018315F
:102EB0008B4244D018318B4241D018318B423ED0E6
:102EC00001F556718B423AD018318B4237D0183108
:102ED0008B4234D018318B4231D018318B422ED0F6
:102EE00018318B422BD018318B4228D018318B42AD
:102EF00025D03B493B4A934218BF8B4200F03181B9
:102F0000394A934200F02D811432934200F0298116
:102F10001432934200F025811432934200F0218153
:102F20001432934200F01D811432934200F0198153
:102F300040236365032384F8353001204AE00221F1
:102F400084F83510002184F834107ABB274A934264
:102F50002CD01832934229D01832934226D01832FE
:102F6000934223D01832934220D0183293421DD07E
:102F700002F55672934219D01832934216D0183285
:102F8000934213D01832934210D0183293420DD08E
:102F9000183293420AD01832934207D01832934223
:102FA00004D01A6822F001021A6003E01A6822F0C5
:102FB00001021A6023681A6812F0010F18D0FFF797
:102FC00041FC431B052BF5D920236365032384F8BB
:102FD0003530012070BD00BF1000024028000240C3
:102FE000085402581C540258305402584000024001
:102FF0001A6881481040A168E2680A4321690A43BF
:1030000061690A43A1690A43E1690A43216A0A43E3
:103010000243616A042900F0998078490868784978
:103020000140B1F1005F11D36168A1F12905A1F15F
:103030003F00032888BF052D06D9A1F147000128CC
:1030400002D94F39032901D842F480121A60266848
:10305000756925F00705636A1D43042B08D1A36A2F
:103060001D43E36A23B12046FFF726FE002872D1F4
:1030700075612046FFF7C6FDE36D03F01F023F2395
:103080009340836023685F495F4A934218BF8B4235
:1030900042D0183293423FD0183293423CD018327B
:1030A000934239D01832934236D01832934233D0FB
:1030B0001832934230D002F5567293422CD0183217
:1030C000934229D01832934226D01832934223D00B
:1030D0001832934220D0183293421DD018329342B6
:1030E0001AD01832934217D0484A934214D014325F
:1030F000934211D0143293420ED0143293420BD02B
:103100001432934208D01432934205D014329342C1
:1031100002D01432934213D12046FFF717FEA36862
:10312000802B59D0236E22791A60636EA26E5A608A
:103130006368013B072B52D90023E366236763676B
:1031400000206065012384F8353043E7E16A206B95
:1031500001430A4361E740236365012084F8350099
:1031600038E7022284F83520002284F834201A68D7
:1031700027491140A268402A2CD0802A27D000225B
:10318000E06842EAD002206942EAD002606942EA7D
:10319000D002A06942EAD002E06942EAD002206A85
:1031A00042EA10120A431A6022681A4B13441A4A60
:1031B000A2FB03231B099B00E3652046FFF722FDCA
:1031C000E26D02F01F0101228A4042605AE74FF48B
:1031D0008042D5E71022D3E700236360A2E72046B0
:1031E000FFF70CFEE36E00221A60236F626F5A60D5
:1031F000A6E70120EEE600BF3F8010FE0010005C55
:103200000000FFFF1000024028000240085402584E
:103210000F00FEFFF8ABFDA7CDCCCCCC002800F012
:103220003E8170B5044690F83400012800F03981E1
:10323000012084F8340094F83500C0B2012807D08A
:103240004FF400636365002384F83430012070BDBF
:10325000022084F83500002060652068924E934D6E
:10326000A84218BFB0422FD01835A8422CD018352C
:10327000A84229D01835A84226D01835A84223D014
:103280001835A84220D01835A8421DD005F556752E
:10329000A84219D01835A84216D01835A84213D024
:1032A0001835A84210D01835A8420DD01835A842BC
:1032B0000AD01835A84207D01835A84204D00568AE
:1032C00025F00105056003E0056825F001050560AE
:1032D0002046FFF7BDFB23687349744A934218BF29
:1032E0008B4238D01832934235D01832934232D0C4
:1032F000183293422FD0183293422CD01832934276
:1033000029D01832934226D002F55672934222D029
:10331000183293421FD0183293421CD01832934275
:1033200019D01832934216D01832934213D0183263
:10333000934210D0183293420DD01A6822F00E0238
:1033400042F00A021A60236C93B12268136843F0BA
:10335000040313600CE01A6822F01E0242F0160209
:103360001A60236C23B12268136843F008031360CA
:1033700023684D494D4A934218BF8B4242D01832C0
:1033800093423FD0183293423CD01832934239D006
:103390001832934236D01832934233D018329342C7
:1033A00030D002F5567293422CD01832934229D075
:1033B0001832934226D01832934223D018329342C7
:1033C00020D0183293421DD0183293421AD01832AE
:1033D000934217D0364A934214D01432934211D0FC
:1033E000143293420ED0143293420BD014329342D3
:1033F00008D01432934205D01432934202D01432D2
:1034000093420ED1236E1A6812F4803F03D01A68DB
:1034100042F480721A60E36E1BB11A6842F4807243
:103420001A6023682049214A934218BF8B4230D04A
:10343000183293422DD0183293422AD01832934238
:1034400027D01832934224D01832934221D0183218
:1034500093421ED002F5567293421AD0183293420C
:1034600017D01832934214D01832934211D0183228
:1034700093420ED0183293420BD01832934208D0A8
:103480001832934205D01A6842F001021A600020F7
:10349000DDE61A6842F001021A600020D7E601203A
:1034A00070470220D3E600BF10000240280002400F
:1034B00008540258F0B583B00446002301937D4BB5
:1034C0001D687D4BA3FB0535AD0A876D3E68D7F8B7
:1034D00000C0036879497A48834218BF8B420CBF09
:1034E0000120002061D0774A93425ED01832934287
:1034F0005BD01832934258D01832934255D01832CC
:10350000934252D0183293424FD002F556729342F2
:103510004BD01832934248D01832934245D01832DB
:10352000934242D0183293423FD0183293423CD05B
:103530001832934239D01832934236D06249634AE6
:10354000934218BF8B4212D0614A93420FD014327B
:1035500093420CD01432934209D01432934206D0D5
:103560001432934203D01432934240F061821A68BD
:10357000E16D01F01F010420884010EA0C0F00F0FB
:10358000A78212F0040F00F0A382786012F4004FBB
:1035900000F05A8212F4803F40F05082A36C002B5E
:1035A00000F046822046984742E2E26D02F01F0199
:1035B00008228A40324241D070BB424A93422BD00B
:1035C0001832934228D01832934225D018329342B1
:1035D00022D0183293421FD0183293421CD002F5E9
:1035E0005672934218D01832934215D01832934233
:1035F00012D0183293420FD0183293420CD01832A6
:10360000934209D01832934206D01832934203D025
:103610001A68C2F3C00202E01A68C2F380026AB1FB
:103620001A6822F004021A60E36D03F01F020823F7
:103630009340BB60636D43F001036365E26D02F08C
:103640001F0226FA02F313F0010F47D023681B482C
:103650001B498B4218BF83423CD018318B4239D072
:1036600018318B4236D018318B4233D018318B420F
:1036700030D018318B422DD018318B422AD001F531
:1036800056718B4226D018318B4223D018318B4291
:1036900020D018318B421DD018318B421AD01831EE
:1036A0008B4217D018318B4214D018318B4211D075
:1036B0001B6813E000000024B5814E1B100002407F
:1036C0002800024040000240085402581C5402588E
:1036D000305402585B6913F0800F3BD1E36D03F067
:1036E0001F03042202FA03F3334240D022689648B3
:1036F00096498A4218BF824235D018318A4232D068
:1037000018318A422FD018318A422CD018318A427F
:1037100029D018318A4226D018318A4223D001F5A7
:1037200056718A421FD018318A421CD018318A4201
:1037300019D018318A4216D018318A4213D0183164
:103740008A4210D018318A420DD018318A420AD0EC
:1037500013680CE0012303FA02F2BA60636D43F0D0
:1037600002036365BAE7126812F0020F3DD1E36D00
:1037700003F01F03102202FA03F333425FD02268E2
:10378000714872498A4218BF824234D018318A4245
:1037900031D018318A422ED018318A422BD01831BC
:1037A0008A4228D018318A4225D018318A4222D044
:1037B00001F556718A421ED018318A421BD0183149
:1037C0008A4218D018318A4215D018318A4212D054
:1037D00018318A420FD018318A420CD018318A42EF
:1037E00009D01268C2F3800208E0BB60636D43F049
:1037F00004036365BBE71268C2F3C002FAB1BB60A1
:1038000023681A6812F4802F0DD01B6813F4002F60
:1038100004D1236C9BB12046984710E0A36C73B190
:10382000204698470BE01A6812F4807F03D11A688B
:1038300022F008021A60236C0BB120469847E36D12
:1038400003F01F03202202FA03F3334200F09280B8
:1038500022683D483D498A4218BF82422ED0183125
:103860008A422BD018318A4228D018318A4225D07A
:1038700018318A4222D018318A421FD018318A4228
:103880001CD001F556718A4218D018318A4215D0E1
:1038900018318A4212D018318A420FD018318A4228
:1038A0000CD018318A4209D018318A4206D018311A
:1038B0008A4203D01268C2F3400202E01268C2F3E7
:1038C0000012002A56D0BB6094F83530DBB2042BCE
:1038D0000ED023681A6812F4802F39D01B6813F4B5
:1038E000002F2CD1636C002B44D02046984741E038
:1038F0002268136823F0160313602268536923F0CB
:1039000080035361236CB3B12268136823F008036A
:103910001360E36D03F01F023F239340BB6001235C
:1039200084F83530002384F83430236D002B7FD0A9
:10393000204698477CE0A36C002BE5D1E9E7E36BD8
:10394000C3B12046984715E010000240280002400D
:103950001A6812F4807F09D11A6822F010021A60E6
:10396000012384F83530002384F83430E36B0BB145
:1039700020469847636D002B5AD0636D13F0010FFA
:1039800052D0042384F8353023689649964A9342EE
:1039900018BF8B422FD0183293422CD0183293424A
:1039A00029D01832934226D01832934223D01832AD
:1039B000934220D0183293421DD002F556729342A2
:1039C00019D01832934216D01832934213D01832BD
:1039D000934210D0183293420DD0183293420AD03D
:1039E0001832934207D01832934204D01A6822F05A
:1039F00001021A6003E01A6822F001021A60019BBA
:103A000001330193AB4204D823681B6813F0010F04
:103A1000F5D123681B6813F0010F0BD0032384F842
:103A20003530002384F83430E36C0BB120469847DE
:103A300003B0F0BD012384F83530F2E7236C002B8E
:103A4000F6D020469847F3E712F0200F3AD12368CA
:103A50006449654A934218BF8B422FD01832934273
:103A60002CD01832934229D01832934226D01832E3
:103A7000934223D01832934220D0183293421DD063
:103A800002F55672934219D01832934216D018326A
:103A9000934213D01832934210D0183293420DD073
:103AA000183293420AD01832934207D01832934208
:103AB00004D01A6822F004021A6003E01A6822F0A7
:103AC00008021A60236C002BB2D020469847AFE75B
:103AD0000220884010EA0C0F60D012F0020F5DD077
:103AE000786012F4004F0ED012F4803F05D1636C61
:103AF000002B9DD0204698479AE7E36B002B97D088
:103B00002046984794E712F0200F40D123683549AA
:103B1000354A934218BF8B422FD0183293422CD093
:103B20001832934229D01832934226D01832934249
:103B300023D01832934220D0183293421DD002F580
:103B40005672934219D01832934216D018329342CB
:103B500013D01832934210D0183293420DD018323D
:103B600093420AD01832934207D01832934204D0BD
:103B70001A6822F00A021A6003E01A6822F014029E
:103B80001A60012384F83530002384F83430E36B65
:103B9000002B3FF44DAF2046984749E7082000FA34
:103BA00001F111EA0C0F3FF443AF12F0080F3FF49C
:103BB0003FAF1A6822F00E021A60E36D03F01F0394
:103BC000012202FA03F37B60626584F8352000234A
:103BD00084F83430E36C002B3FF42AAF204698473A
:103BE00026E700BF1000024028000240F0B583B075
:103BF00000236BE085685E000324B44025EA0405D9
:103C0000CC68B4402C438460446824EA0C0C4C68B3
:103C1000C4F300149C4044EA0C04446068E0DD08EE
:103C2000083550F8256003F007044FEA840C0F2490
:103C300004FA0CF426EA040E0C6904FA0CF444EAC3
:103C40000E0440F825406BE0092400E0002404FA4B
:103C50000EF42C430CF1020C694D45F82C404FF04A
:103C6000B0442568D44325EA02064F6817F4801F44
:103C700001D042EA05064FF0B0452E606D6804EAB7
:103C800005064F6817F4001F01D042EA05064FF001
:103C9000B0456E60D5F8845004EA05064F6817F405
:103CA000003F01D042EA05064FF0B045C5F88460F8
:103CB000D5F880502C404E6816F4803F01D042EA7F
:103CC00005044FF0B042C2F8804001330A6832FA6E
:103CD00003F400F092804FF0010C0CFA03FC1CEA94
:103CE0000202F2D04C6804F00304013C012C81D99B
:103CF0004C6804F00304032C0CD0C4685D004FF042
:103D0000030C0CFA05FC24EA0C0C8C68AC4044EA69
:103D10000C04C4604C6804F00304022C3FF47FAF31
:103D200004684FEA430E4FF0030C0CFA0EFC24EA31
:103D30000C0C4C6804F0030404FA0EF444EA0C047E
:103D400004604C6814F4403FBFD02E4CD4F8F450BB
:103D500045F00205C4F8F450D4F8F44004F002042D
:103D60000194019C4FEA930C0CF10205244C54F889
:103D7000255003F003044FEA840E0F2404FA0EF4D6
:103D800025EA0405204CA0423FF460AF04F58064AE
:103D9000A04222D004F58064A04220D004F58064C3
:103DA000A0421ED004F58064A0421CD004F58064BB
:103DB000A0421AD004F58064A04218D004F58064B3
:103DC000A04216D004F58064A04214D004F58064AB
:103DD000A0423FF439AF0A2439E7012437E702242F
:103DE00035E7032433E7042431E705242FE70624CD
:103DF0002DE707242BE7082429E703B0F0BD00BF17
:103E00000004005800440258000002580369194297
:103E100001D001207047002070470AB181617047CE
:103E2000090481617047436901EA030221EA030141
:103E300041EA024181617047C368016902680B432E
:103E4000D360436982691343C2691343026A13430F
:103E5000426A1343C26A1343026B1343826A013AF4
:103E600043EA8243816802680B4313614368B3F1FC
:103E7000804F1BD0036800225A61436B93421BDBC7
:103E800002689BB21362836B002B20DB01680A6A15
:103E900042EA03430B624368B3F1804F24D00268C7
:103EA000DBB29362036800225A62704702681369AA
:103EB00043F040431361DDE70268536943F4802314
:103EC0005361436B5B4202689BB21362DBE702689B
:103ED000536943F400235361836B5A4201680B6AB0
:103EE00043EA02430B62D6E7036800229A62D9E7ED
:103EF00038B50446FEF7A6FC44B30546002384F813
:103F00003C30022384F83D302268D36823F001035B
:103F1000D3602368DB6813F0010F0BD0FEF792FC2F
:103F2000431B052BF5D94023A366032384F83D30BA
:103F300001200AE02046FFF77FFF0020E0652066B1
:103F40006066A066012384F83D3038BD0120FCE79F
:103F500068B3034690F83C0001282AD0012083F87A
:103F60003C0093F83D00C0B2012804D0012000229B
:103F700083F83C20704730B41C68256915F0804FE9
:103F800009D121631868426351B919680A6922F09E
:103F900000420A610020002283F83C2030BC7047B8
:103FA00019680A6942F000420A610020F3E7012023
:103FB000704702207047000030B583B000230193A2
:103FC000674B1D68674BA3FB05350168664B0B44C7
:103FD000C3F38413012202FA03F34FF0A4421268E0
:103FE0001A4200F0A5800446AD0A0B6813F0010FD9
:103FF0002FD0CB6813F0020F2BD0CB6823F0020335
:10400000CB600268936813F0800F40F09380816E5C
:1040100041F00101816613F4007F03D0A16E41F0ED
:104020000401A16613F4807F03D0A16E41F0080162
:10403000A16613F4806F03D0A16E41F01001A16658
:1040400013F4006F03D0A36E43F02003A366012393
:10405000536023681A6812F0100F09D0DA6812F062
:10406000200F05D010225A60A36C0BB12046984750
:1040700023681A6812F0080F09D0DA6812F0100FDE
:1040800005D008225A60E36C0BB12046984723689C
:104090001A6812F0040F09D0DA6812F0080F05D080
:1040A00004225A60236D0BB12046984723681A6892
:1040B00012F0020F19D0DA6812F0040F15D0DA6886
:1040C00022F03E02DA6094F83D30DBB2042B36D0A9
:1040D000236802225A60002384F83C30012384F8CC
:1040E0003D30636C0BB120469847A36E03B30423A5
:1040F00084F83D302268D36823F00103D360019B2C
:1041000001330193AB4204D82368DB6813F0010F3D
:10411000F5D1002384F83C302368DB6813F0010FED
:1041200019D0032384F83D30636D0BB120469847C6
:1041300003B030BD816E41F0020181666BE7002360
:1041400084F83C30012384F83D30A36D002BEFD080
:1041500020469847ECE7012384F83D30E4E700BFB0
:1041600000000024B5814E1BC0FFFFAD134BDB6880
:1041700013F0040F07D1114BDB6803F007038342F0
:104180001AD00120704710B50C4AD36823F00703FA
:104190001843D060FEF756FB0446084B5B6813F4E7
:1041A000005F07D1FEF74EFB001BB0F57A7FF4D914
:1041B000012000E0002010BD002070470048025898
:1041C000002800F0398338B50446036813F0010F66
:1041D00025D0944A136903F03803926A102B15D046
:1041E000182B0FD06368B3F5803F3FD0002B53D11D
:1041F0008C4B1A6822F480321A601A6822F48022EA
:104200001A6038E002F00302022AEBD1854B1B68EA
:1042100013F4003F03D06368002B00F00F83236882
:1042200013F0020F00F0A1807E4A1369926A13F026
:1042300038035AD0182B55D0E368002B00F0DE80ED
:1042400078490A6822F0190213430B60FEF7FAFA64
:104250000546744B1B6813F0040F40F0AD80FEF769
:10426000F1FA401B0228F4D90320EEE26D4A1368EC
:1042700043F48033136063682BB3FEF7E3FA05461B
:10428000684B1B6813F4003FC9D1FEF7DBFA401BF3
:104290006428F5D90320D8E2B3F5A02F09D0614BEB
:1042A0001A6822F480321A601A6822F480221A6096
:1042B000E1E75C4B1A6842F480221A601A6842F403
:1042C00080321A60D7E7FEF7BDFA0546554B1B68EA
:1042D00013F4003FA3D0FEF7B5FA401B6428F5D9CC
:1042E0000320B2E212F0030FA6D14E4B1B6813F06D
:1042F000040F03D0E368002B00F0A282494A136840
:1043000023F01903E1680B431360FEF79BFA05469F
:10431000444B1B6813F0040F06D1FEF793FA401BC1
:104320000228F5D9032090E2FEF7A6FA41F2030332
:10433000984212D82269402A07D03A494B6823F4A0
:104340007C3343EA02334B600FE0364A536823F470
:104350007C3343F40033536007E0324A536823F060
:10436000FE43216943EA01635360236813F0100F91
:1043700000F088802B4A136903F03803926A082BF7
:1043800056D0182B50D0E369002B00F0B880254A96
:10439000136843F080031360FEF754FA0546214B7F
:1043A0001B6813F4807F40F08880FEF74BFA401BB7
:1043B0000228F4D9032048E2FEF75EFA41F2030333
:1043C000984212D82269402A07D016494B6823F434
:1043D0007C3343EA02334B60C7E7124A536823F445
:1043E0007C3343F400335360BFE70E4A536823F035
:1043F000FE43216943EA01635360B6E7094A136843
:1044000023F001031360FEF71DFA0546054B1B68F8
:1044100013F0040FA9D0FEF715FA401B0228F5D9B6
:10442000032012E20044025802F00302012AAAD13A
:10443000A14B1B6813F4807F03D0E369802B40F00D
:104440000182FEF719FA41F20303984212D8226A58
:10445000202A07D098494B6823F0F84343EA826347
:104460004B600FE0944A536823F0F84343F08043D5
:10447000536007E0904AD36823F07C53216A43EAF3
:104480000163D360236813F0080F60D06369002BC9
:1044900049D0894A536F43F001035367FEF7D2F9BD
:1044A0000546854B5B6F13F0020F50D1FEF7CAF93A
:1044B000401B0228F5D90320C7E1FEF7DDF941F2E0
:1044C0000303984212D8226A202A07D07A494B68FF
:1044D00023F0F84343EA82634B60D3E7764A53689C
:1044E00023F0F84343F080435360CBE7724AD3682C
:1044F00023F07C53216A43EA0163D360C2E76E4A2A
:10450000136823F080031360FEF79CF905466A4B9D
:104510001B6813F4807FB5D0FEF794F9401B022886
:10452000F5D9032091E1644A536F23F001035367E7
:10453000FEF788F90546604B5B6F13F0020F06D05B
:10454000FEF780F9401B0228F5D903207DE123689E
:1045500013F0200F29D0A3699BB1574A136843F485
:1045600080531360FEF76EF90546534B1B6813F436
:10457000005F1AD1FEF766F9401B0228F5D9032027
:1045800063E14D4A136823F480531360FEF75AF930
:104590000546494B1B6813F4005F06D0FEF752F93D
:1045A000401B0228F5D903204FE1236813F0040FC4
:1045B00021D1636A002B00F047813F4A126902F063
:1045C0003802182A00F0EE80022B79D03A4A13689C
:1045D00023F080731360FEF735F90446364B1B68F1
:1045E00013F0007F00F0DC80FEF72CF9001B02289E
:1045F000F4D9032029E1314A136843F4807313602E
:10460000FEF720F905462D4B1B6813F4807F06D179
:10461000FEF718F9401B6428F5D9032015E1A368BB
:10462000012B0AD00BBB244B1A6F22F001021A6730
:104630001A6F22F004021A6704E01F4A136F43F056
:1046400001031367A36833B3FEF7FCF805461A4B62
:104650001B6F13F0020FACD1FEF7F4F8401B41F2D0
:1046600088339842F3D90320EFE0052B09D0124B91
:104670001A6F22F001021A671A6F22F004021A67F9
:10468000E0E70D4B1A6F42F004021A671A6F42F00E
:1046900001021A67D6E7FEF7D5F80546064B1B6FF1
:1046A00013F0020F85D0FEF7CDF8401B41F288339E
:1046B0009842F3D90320C8E0004402580048025849
:1046C000694A136823F080731360FEF7BBF8054650
:1046D000654B1B6813F0007F06D0FEF7B3F8401B54
:1046E0000228F5D90320B0E05F4B996A5F4A0A407F
:1046F000A16AE06A41EA00110A439A62226B013A18
:10470000C2F30802616B0139490289B20A43A16B05
:104710000139090401F4FE010A43E16B013909067C
:1047200001F0FE410A431A63DA6A22F00102DA62FA
:10473000596B4F4A0A40A16C42EAC1025A63DA6AD5
:1047400022F00C02216C0A43DA62DA6A22F00202D9
:10475000616C0A43DA62DA6A42F48032DA62DA6A57
:1047600042F40032DA62DA6A42F48022DA62DA6A09
:1047700042F00102DA621A6842F080721A60FEF7B3
:1047800061F80446384B1B6813F0007F06D1FEF732
:1047900059F8001B0228F5D9032056E0002054E008
:1047A000002052E0304A916A106B012B4ED001F08C
:1047B0000303A26A93424BD1C1F30511E36A994204
:1047C00048D1C0F30802236B013B9A4244D1C0F3A5
:1047D0004622636B013B9A4240D1C0F30642A36B71
:1047E000013B9A423CD1C0F30660E36B013B984227
:1047F00038D11D4B5B6BC3F3CC03A26C9A4201D141
:10480000002022E0184AD36A23F00103D362FEF7A6
:1048100019F80546FEF716F8A842FBD0124A516B6C
:10482000134B0B40A16C43EAC1035363D36A43F0BB
:104830000103D362002008E001207047012004E05A
:10484000012002E0012000E0002038BD0120FCE74B
:104850000120FAE70120F8E70120F6E70120F4E75C
:104860000120F2E70120F0E7004402580CFCFFFFB2
:104870000700FFFF744B1B6903F03803102B00F097
:10488000DE80182B10D00BB1704870476E4B1B6840
:1048900013F0200F00F0D5806B4B1868C0F3C100F7
:1048A0006B4B23FA00F0704710B4674A916A01F02D
:1048B0000301946AC4F30510D36A03F0010C536B2F
:1048C000C3F3CC030CFB03F307EE903AF8EE677AE0
:1048D00014F47C7F00F09380012965D0022900F058
:1048E0009180E1B107EE100AF8EE476A9FED596A30
:1048F00086EE267A544B1B6BC3F3080306EE903A00
:10490000F8EE666A9FED546A67EE867A76EEA77ACD
:10491000F7EE006A77EEA67A27EE277A60E0136852
:1049200013F0200F23D011461268C2F3C102484B86
:10493000D34007EE103AF8EE476A07EE100AB8EED9
:10494000476A86EE867A0B6BC3F3080306EE903A4D
:10495000F8EE666A9FED406A67EE867A76EEA77A91
:10496000F7EE006A77EEA67A27EE277A38E007EEB0
:10497000100AF8EE476A9FED396A86EE267A324BC6
:104980001B6BC3F3080306EE903AF8EE666A9FEDE0
:10499000326A67EE867A76EEA77AF7EE006A77EEED
:1049A000A67A27EE277A1BE007EE100AF8EE476A90
:1049B0009FED286A86EE267A234B1B6BC3F3080310
:1049C00006EE903AF8EE666A9FED236A67EE867A05
:1049D00076EEA77AF7EE006A77EEA67A27EE277AC8
:1049E000194B1B6BC3F34623013307EE903AF8EEE5
:1049F000677AC7EE276AFCEEE67A17EE900A5DF852
:104A0000044B704707EE100AF8EE476A9FED146AF0
:104A100086EE267A0C4B1B6BC3F3080306EE903A26
:104A2000F8EE666A9FED0C6A67EE867A76EEA77AF4
:104A3000F7EE006A77EEA67A27EE277AD0E70948E4
:104A400070470348704700BF0044025800093D000A
:104A50000090D0030024744A000000390024744CF4
:104A600020BCBE4B40787D01002800F0328170B53B
:104A70000D4604469B4B1B6803F00F038B420BD281
:104A8000984A136823F00F030B431360136803F075
:104A90000F038B4240F01F81236813F0040F0CD0EA
:104AA0002269914B9B6903F070039A4205D98E49A4
:104AB0008B6923F070031A438A61236813F0080F8F
:104AC0000CD06269884BDB6903F070039A4205D908
:104AD0008549CB6923F070031A43CA61236813F038
:104AE000100F0CD0A269804BDB6903F4E0639A429B
:104AF00005D97D49CB6923F4E0631A43CA61236871
:104B000013F0200F0CD0E269774B1B6A03F070039F
:104B10009A4205D974490B6A23F070031A430A625A
:104B2000236813F0020F0CD0E2686F4B9B6903F00F
:104B30000F039A4205D96C498B6923F00F031A437E
:104B40008A61236813F0010F41D0674A936923F407
:104B50007063A1680B4393616368022B0AD0032B37
:104B600027D0012B2CD0604A126812F0040F06D116
:104B70000120ADE0126812F4003F00F0AE805A4907
:104B80000A6922F0070213430B61FDF75BFE06463C
:104B9000554B1B6903F038036268B3EBC20F16D0A4
:104BA000FDF750FE801B41F288339842F0D9032074
:104BB0008EE04D4A126812F0007FE0D1012087E0BC
:104BC000494A126812F4807FD9D1012080E023681D
:104BD00013F0020F0CD0E268434B9B6903F00F0304
:104BE0009A4205D240498B6923F00F031A438A6128
:104BF0003C4B1B6803F00F03AB420AD9394A1368D8
:104C000023F00F032B431360136803F00F03AB4231
:104C100065D1236813F0040F0CD02269324B9B69D5
:104C200003F070039A4205D22F498B6923F0700379
:104C30001A438A61236813F0080F0CD062692A4B6B
:104C4000DB6903F070039A4205D22749CB6923F050
:104C500070031A43CA61236813F0100F0CD0A269C5
:104C6000214BDB6903F4E0639A4205D21E49CB690C
:104C700023F4E0631A43CA61236813F0200F0CD0B9
:104C8000E269194B1B6A03F070039A4205D2164978
:104C90000B6A23F070031A430A62FFF7EBFD124917
:104CA0008B69C3F30323114AD35C03F01F03D8407D
:104CB0008B6903F00F03D35C03F01F0320FA03F3A7
:104CC0000B4A13600B4B18600B4B1868FDF758FD2F
:104CD00070BD012070470120FAE70120F8E70120AC
:104CE000F6E700BF0020005200440258B0C9000897
:104CF00004000024000000240C00002408B5FFF785
:104D0000B9FD0B4A9369C3F303230A49CB5C03F053
:104D10001F0320FA03F3926902F00F02885C00F08F
:104D20001F0023FA00F0044A1060044A136008BD13
:104D300000440258B0C90008040000240000002408
:104D400008B5FFF7DBFF054BDB69C3F30213044A29
:104D5000D35C03F01F03D84008BD00BF00440258D5
:104D6000B0C9000808B5FFF7C9FF054BDB69C3F3FD
:104D70000223044AD35C03F01F03D84008BD00BFE0
:104D800000440258B0C90008404B9B6A03F003037B
:104D9000032B79D070B505460E463C4A136823F0C4
:104DA00080631360FDF74EFD0446384B1B6813F01B
:104DB000006F06D0FDF746FD031B022BF5D903203B
:104DC00070BD324B9A6A22F47C32296842EA013281
:104DD0009A626A68013AC2F30802A9680139490275
:104DE00089B20A43E9680139090401F4FE010A4362
:104DF00029690139090601F0FE410A439A63DA6A1A
:104E000022F0C00269690A43DA62DA6A22F02002FB
:104E1000A9690A43DA62DA6A22F01002DA62D96B0F
:104E20001B4A0A40E96942EAC102DA63DA6A42F0DF
:104E30001002DA62C6B91A46DB6A43F40023D36271
:104E4000124A136843F080631360FDF7FBFC0446CD
:104E50000E4B1B6813F0006F14D1FDF7F3FC001B21
:104E60000228F5D90320ABE7012E05D0074AD36A03
:104E700043F40013D362E3E7044AD36A43F4801394
:104E8000D362DDE700209BE7012070470044025811
:104E90000700FFFF404B9B6A03F00303032B79D00D
:104EA00070B505460E463C4A136823F080531360E4
:104EB000FDF7C8FC0446384B1B6813F0005F06D0B2
:104EC000FDF7C0FC031B022BF5D9032070BD324B4C
:104ED0009A6A22F07C72296842EA01529A626A68F0
:104EE000013AC2F30802A9680139490289B20A43AA
:104EF000E9680139090401F4FE010A43296901390D
:104F0000090601F0FE410A431A64DA6A22F440629B
:104F100069690A43DA62DA6A22F40072A9690A430B
:104F2000DA62DA6A22F48072DA62596C1B4A0A4049
:104F3000E96942EAC1025A64DA6A42F48072DA62CA
:104F4000C6B91A46DB6A43F48003D362124A136877
:104F500043F080531360FDF775FC04460E4B1B684D
:104F600013F0005F14D1FDF76DFC001B0228F5D98A
:104F70000320ABE7012E05D0074AD36A43F08073C4
:104F8000D362E3E7044AD36A43F40003D362DDE764
:104F900000209BE701207047004402580700FFFFF4
:104FA000F8B50446036813F0006F30D0836EB3F594
:104FB000001F26D00ED8EBB1B3F5801F07D1022118
:104FC0000830FFF7E1FE054645B12E4621E00126F7
:104FD00035461EE0B3F5401F09D10025984A136DF0
:104FE00023F44013A16E0B431365002611E0012644
:104FF00035460EE0924AD36A43F40033D36200256B
:10500000ECE702212830FFF745FF0546DCE70026E4
:105010003546236813F4807F14D0A36D042B32D857
:10502000DFE803F003232A080800854AD36A43F423
:105030000033D36255BB824A136D23F00703A16D81
:105040000B431365236813F4007F31D0E36D802B8D
:105050004CD020D8002B43D0402B19D1002104F193
:105060000800FFF791FE05461AE0002104F1080050
:10507000FFF78AFE0546DDE7002104F12800FFF76F
:1050800009FF0546D6E701263546DBE72E46D9E778
:10509000012635460CE0C02B02D0B3F5807F1CD131
:1050A0005DBB674A136D23F4E073E16D0B43136539
:1050B000236813F4806F46D0D4F8A830B3F5800F7E
:1050C00039D01FD88BB3B3F5001F18D1002104F1DC
:1050D0000800FFF759FE05461AE001263546E7E7C6
:1050E000574AD36A43F40033D362D9E7002104F16D
:1050F0002800FFF7CFFE0546D2E72E46D8E7012667
:10510000354620E0B3F5C00F02D0B3F5000F09D14A
:10511000C5B94B4A936D23F46003D4F8A8100B4330
:10512000936510E0012635460DE0454AD36A43F405
:105130000033D362ECE7002104F12800FFF7AAFE58
:105140000546E5E72E46236813F4006F24D0D4F813
:10515000AC30B3F1007F42D00ED8002B39D0B3F180
:10516000807F06D1002104F10800FFF70DFE0546FF
:1051700008E0012635460FE0B3F1407F02D0B3F1DD
:10518000806F23D1002D31D12D4A936D23F0E06340
:10519000D4F8AC100B439365236813F0007F2ED036
:1051A000E36C202B40D026D833B1102B20D1244AD9
:1051B000D36A43F40033D362002D3CD1204AD36C30
:1051C00023F03003E16C0B43D36418E0012635462D
:1051D000E2E71B4AD36A43F40033D362D2E70021EB
:1051E00004F12800FFF756FE0546CBE72E46D3E72D
:1051F0000126354603E0302BDED0012635462368F4
:1052000013F4805F2DD0236EB3F5005F4FD019D813
:10521000002B46D0B3F5805F0FD1002104F10800C8
:10522000FFF7B2FD054613E0022104F10800FFF785
:10523000ABFD0546C0E72E46E1E70126354610E006
:1052400000440258B3F5405F02D0B3F5804F25D13A
:10525000002D33D1774A136D23F4E043216E0B43C5
:105260001365236813F4005F38D0636EB3F5003F15
:1052700053D028D843B1B3F5803F21D1012104F1A7
:105280000800FFF781FD0546002D4DD1694A136DD9
:1052900023F4E023616E0B4313651FE001263546BE
:1052A000DFE7644AD36A43F40033D362D0E70021D6
:1052B00004F12800FFF7EEFD0546C9E72E46D0E7CA
:1052C000012635460AE0B3F5802FDDD0B3F5A02FD7
:1052D000DAD0B3F5403FD7D001263546236813F422
:1052E000804F31D0D4F8B030B3F1005F45D020D832
:1052F00043B1B3F1805F19D1012104F10800FFF738
:1053000043FD0546002D3FD14A4A936D23F0E0430B
:10531000D4F8B0100B43936516E0012104F1280086
:10532000FFF7B8FD0546AFE72E46D7E7012635461D
:105330000AE0B3F1804FE5D0B3F1A04FE2D0B3F172
:10534000405FDFD001263546236813F4004F09D0B3
:10535000236FB3F1805F19D0B3F1005F24D0D3B1D4
:1053600001263546236813F0807F33D0A36C032BCE
:105370005BD8DFE803F027225327012104F128003E
:10538000FFF788FD0546BDE72E46DDE7294AD36ACB
:1053900043F40033D36275B9264A136D23F04053AA
:1053A000216F0B431365DDE7012104F10800FFF7CE
:1053B000EBFC0546EFE72E46D4E71E4AD36A43F4DA
:1053C0000033D362A5BB1B4AD36C23F00303A16C4B
:1053D0000B43D364236813F4800F2DD1236813F09B
:1053E000010F00F0A580E36F282B00F29F80DFE81B
:1053F00003F08D9D9D9D9D9D9D9D879D9D9D9D9D4A
:105400009D9D969D9D9D9D9D9D9D8D9D9D9D9D9DE3
:105410009D9D8D9D9D9D9D9D9D9D8D00022104F1D5
:105420000800FFF7B1FC0546CCE701263546D1E779
:105430002E46CFE700440258914A136843F4807324
:105440001360FDF7FFF907468D4B1B6813F4807F4F
:1054500005D1FDF7F7F9C01B6428F5D90325002D08
:105460004AD1884B1B6FD4F8B420534013F4407FCB
:105470000CD0844B1A6F22F44072196F41F48031C2
:105480001967196F21F4803119671A67D4F8B4309D
:10549000B3F5807F15D08DBBD4F8B43003F44072DF
:1054A000B2F5407F1ED0774A136923F47C53136111
:1054B00074490B6FD4F8B420C2F30B0213430B678B
:1054C0008CE7FDF7BFF907466E4B1B6F13F0020F19
:1054D000E1D1FDF7B7F9C01B41F288339842F3D907
:1054E0000325D8E76748026922F47C52664901EA3D
:1054F000131313430361DBE72E466FE72E466DE778
:10550000012104F10800FFF73FFC0546E5B95D4ABB
:10551000536D23F03803E16F0B43536508E001211D
:1055200004F12800FFF7B6FC0546EFE701263546F3
:10553000236813F0020F17D0A36F052B28D8DFE8DC
:1055400003F00B05200B0B0B2E46F1E7012104F1B4
:105550000800FFF719FC0546EDB94A4A536D23F0E0
:105560000703A16F0B435365236813F0040F23D087
:10557000D4F89430052B45D8DFE803F0150F3D151E
:105580001515012104F12800FFF784FC0546E3E727
:1055900001263546E8E72E46E6E7012104F108003A
:1055A000FFF7F2FB054685BB364A936D23F00703F0
:1055B000D4F894100B439365236813F0200F34D074
:1055C000D4F89030B3F1005F4ED023D843B1B3F19B
:1055D000805F1CD1002104F10800FFF7D5FB0546D0
:1055E000002D48D1274A536D23F0E043D4F89010A2
:1055F0000B43536519E0012104F12800FFF74AFC31
:105600000546D0E701263546D6E72E46D4E70126E3
:1056100035460AE0B3F1804FE2D0B3F1A04FDFD0BE
:10562000B3F1405FDCD001263546236813F0400F0C
:1056300037D0D4F89C30B3F5006F53D026D843B19F
:10564000B3F5806F19D1002104F10800FFF79CFB2E
:105650000546002D4DD10B4A936D23F4E053D4F849
:105660009C100B4393651CE0022104F12800FFF716
:1056700011FC0546B4E72E46D7E70126354610E073
:105680000048025800440258CFFFFF00B3F5805F86
:10569000DFD0B3F5A05FDCD0B3F5406FD9D00126E1
:1056A0003546236813F0800F33D0D4F8A030B3F51B
:1056B000804F00F0A38021D843B1B3F5005F1AD129
:1056C000002104F10800FFF75FFB0546002D40F0C4
:1056D0009C80814A936D23F46043D4F8A0100B435F
:1056E000936516E0022104F12800FFF7D3FB05467D
:1056F000AFE72E46D5E7012635460AE0B3F5004F61
:10570000E4D0B3F5204FE1D0B3F5C04FDED0012691
:105710003546236813F0080F0CD0D4F88430B3F565
:10572000805F74D06C4A536D23F44053D4F88410D6
:105730000B435365236813F0100F0CD0D4F8983046
:10574000B3F5807F6CD0644A936D23F44073D4F832
:1057500098100B439365236813F4002F0BD0D4F8F3
:10576000A430B3F5803F74D0B3F5003F67D0002B71
:105770005FD001263546236813F4802F0CD0D4F86F
:105780008830B3F5001F7CD0B3F5401F6FD0B3F560
:10579000801F67D001263546236813F4803F08D068
:1057A000236D002B76D0B3F5803F00F08180012679
:1057B0003546236813F0005F40F08380236813F4BC
:1057C000003F00F08E80D4F88030B3F5807F00F089
:1057D000EC8040F28380B3F5007F03D0B3F5407FC7
:1057E00040F0E180002D40F0E6803B4A536D23F409
:1057F0004073D4F880100B43536572E0022104F12A
:105800002800FFF747FB054660E72E4681E70221A7
:1058100004F12800FFF73EFB002883D0012681E732
:10582000022104F12800FFF735FB00288BD0012668
:1058300089E7002104F10800FFF7A6FA05467DB9C3
:10584000254A936D23F44033D4F8A4100B43936599
:1058500091E7022104F12800FFF71CFB0546EEE763
:105860002E4688E71C4AD36A43F40033D3627DB9DD
:10587000194A536D23F44013D4F888100B43536531
:105880008AE7012104F12800FFF704FB0546EEE753
:105890002E4681E7104AD36A43F40033D36275B9C8
:1058A0000D4AD36C23F48033216D0B43D36480E71E
:1058B000022104F10800FFF767FA0546EFE72E46DC
:1058C00077E7022104F12800FFF7E4FA00283FF40B
:1058D00075AF012672E700BF00440258002B81D04B
:1058E0000126236813F4801F06D04F4A136D23F05E
:1058F0000043616F0B431365236813F0805F07D08B
:10590000494A136923F48043D4F8B8100B43136158
:10591000236813F4001F06D0434A136D23F08073ED
:10592000E16E0B431365236813F0804F09D03E4BA3
:105930001A6922F400421A611A69D4F8BC100A43A9
:105940001A612368002B06DA374AD36C23F04053E0
:10595000616D0B43D364236813F4000F07D0324A00
:10596000536D23F44003D4F88C100B4353656368E4
:1059700013F0010F21D1636813F0020F26D1636881
:1059800013F0040F2BD1636813F0080F30D1636854
:1059900013F0100F35D1636813F0200F3AD106B120
:1059A00001263046F8BD01269BE71F4AD36A43F41F
:1059B0000033D36216E72E4693E7002104F1080076
:1059C000FFF7E2F90028D6D00646D4E7012104F11A
:1059D0000800FFF7D9F90028D1D00646CFE7022109
:1059E00004F10800FFF7D0F90028CCD00646CAE73A
:1059F000002104F12800FFF74DFA0028C7D0064621
:105A0000C5E7012104F12800FFF744FA0028C2D0BD
:105A10000646C0E7022104F12800FFF73BFA002800
:105A2000BDD00646BBE700BF0044025808B5FFF7EB
:105A300065F9054B1B6AC3F30213044AD35C03F0F8
:105A40001F03D84008BD00BF00440258B0C9000879
:105A500010B5774A916A946AC4F3053ED36AC3F3DA
:105A6000001CD36BC3F3CC030CFB03F314F47C3F97
:105A700000F0D88001F0030107EE903AF8EE677A63
:105A8000012965D0022900F0B080E1B107EE10EAEB
:105A9000B8EE477A9FED676AC6EE076A644B9B6B68
:105AA000C3F3080307EE103AB8EE477A9FED626A37
:105AB00067EE867A77EE277AB7EE007A77EE877A06
:105AC00066EEA76A60E0136813F0200F23D011463A
:105AD0001268C2F3C102594BD34007EE103AB8EE38
