:020000040800F2
:1000000000000824BD230008792100087B21000896
:100010007D2100087F2100088121000800000000E8
:10002000000000000000000000000000B1AF000868
:10003000832100080000000051B00008852100085D
:100040000D2400080D2400080D2400080D240008CC
:100050000D2400080D2400080D2400080D240008BC
:100060000D2400080D2400089B210008A52100088C
:10007000B5210008C5210008D52100080D2400087D
:100080000D2400080D2400080D2400080D2400088C
:100090000D2400080D2400080D2400080D2400087C
:1000A0000D2400080D2400080D2400080D2400086C
:1000B0000D2400080D2400080D2400080D2400085C
:1000C0000D2400080D2400080D240008E521000877
:1000D0000D2400080D2400080D2400080D2400083C
:1000E0000D2400080D240008000000000D24000865
:1000F0000D2400080D2400080D2400080D2400081C
:100100000D240008F52100080D2400080D24000826
:100110000D2400080D2400080D2400080D240008FB
:100120000D2400080D2400080D2400080D240008EB
:100130000D2400080D2400080D2400080D240008DB
:1001400000000000000000000000000000000000AF
:100150000D2400080D2400080D2400080D240008BB
:100160000D2400080D2400080D2400080D240008AB
:100170000D2400080D2400080D2400080D2400089B
:100180000D2400080D2400080D2400080D2400088B
:100190000D2400080D2400080D2400080D2400087B
:1001A0000D2400080D2400080D2400080D2400086B
:1001B0000D2400080D2400080D2400080D2400085B
:1001C0000D2400080D2400080D2400080D2400084B
:1001D0000D2400080D2400080D2400080D2400083B
:1001E0000D2400080D2400080D2400080D2400082B
:1001F0000D2400080D2400080D2400080D2400081B
:100200000D2400080D2400080D2400080D2400080A
:100210000D2400080D2400080D2400080D240008FA
:100220000D2400080D24000805220008000000002D
:100230000D2400080D240008000000000D24000813
:100240000D2400080D2400080D2400080D240008CA
:100250000D2400080D2400080D2400080D240008BA
:100260000D2400080D2400080D2400080D240008AA
:100270000D2400080D2400080D24000800000000D3
:100280000D2400080D2400080D24000800000000C3
:08029000000000000D2400082D
:1002C00081F0004102E000BF83F0004330B54FEA07
:1002D00041044FEA430594EA050F08BF90EA020F74
:1002E0001FBF54EA000C55EA020C7FEA645C7FEA07
:1002F000655C00F0E2804FEA5454D4EB5555B8BF2A
:100300006D420CDD2C4480EA020281EA030382EA9A
:10031000000083EA010180EA020281EA0303362D2C
:1003200088BF30BD11F0004F4FEA01314FF4801CFF
:100330004CEA113102D0404261EB410113F0004F11
:100340004FEA03334CEA133302D0524263EB4303C8
:1003500094EA050F00F0A780A4F10104D5F1200E66
:100360000DDB02FA0EFC22FA05F2801841F10001C1
:1003700003FA0EF2801843FA05F359410EE0A5F195
:1003800020050EF1200E012A03FA0EFC28BF4CF0C6
:10039000020C43FA05F3C01851EBE37101F000457C
:1003A00007D54FF0000EDCF1000C7EEB00006EEB89
:1003B0000101B1F5801F1BD3B1F5001F0CD3490813
:1003C0005FEA30004FEA3C0C04F101044FEA44526A
:1003D00012F5800F80F09A80BCF1004F08BF5FEAF1
:1003E000500C50F1000041EB045141EA050130BDD1
:1003F0005FEA4C0C404141EB0101013C28BFB1F5E3
:10040000801FE9D291F0000F04BF01460020B1FA2D
:1004100081F308BF2033A3F10B03B3F120020CDA00
:100420000C3208DD02F1140CC2F10C0201FA0CF0DE
:1004300021FA02F10CE002F11402D8BFC2F1200C43
:1004400001FA02F120FA0CFCDCBF41EA0C019040F9
:10045000E41AA2BF01EB0451294330BD6FEA040442
:100460001F3C1CDA0C340EDC04F11404C4F120022D
:1004700020FA04F001FA02F340EA030021FA04F33F
:1004800045EA030130BDC4F10C04C4F1200220FA96
:1004900002F001FA04F340EA0300294630BD21FAD4
:1004A00004F0294630BD94F0000F83F4801306BF9A
:1004B00081F480110134013D4EE77FEA645C18BF8E
:1004C0007FEA655C29D094EA050F08BF90EA020F25
:1004D00005D054EA000C04BF1946104630BD91EA1D
:1004E000030F1EBF0021002030BD5FEA545C05D120
:1004F0004000494128BF41F0004130BD14F580045F
:100500003CBF01F5801130BD01F0004545F0FE41D2
:1005100041F470014FF0000030BD7FEA645C1ABF07
:10052000194610467FEA655C1CBF0B46024650EA3E
:10053000013406BF52EA033591EA030F41F400216A
:1005400030BD00BF90F0000F04BF0021704730B5F0
:100550004FF4806404F132044FF000054FF00001C5
:1005600050E700BF90F0000F04BF0021704730B586
:100570004FF4806404F1320410F0004548BF40425B
:100580004FF000013EE700BF42004FEAE2014FEAB0
:1005900031014FEA02701FBF12F07F4393F07F4F8B
:1005A00081F06051704732F07F4208BF704793F08E
:1005B0007F4F04BF41F40021704730B54FF46074A1
:1005C00001F0004521F000411CE700BF50EA0102A4
:1005D00008BF704730B54FF000050AE050EA01024D
:1005E00008BF704730B511F0004502D5404261EBBD
:1005F00041014FF4806404F132045FEA915C3FF4FE
:10060000D8AE4FF003025FEADC0C18BF03325FEA9A
:10061000DC0C18BF033202EBDC02C2F1200300FA4B
:1006200003FC20FA02F001FA03FE40EA0E0021FA70
:1006300002F11444BDE600BF4FF0FF3C06E000BFEE
:100640004FF0010C02E000BF4FF0010C4DF804CD5B
:100650004FEA410C7FEA6C5C4FEA430C18BF7FEA1B
:100660006C5C1BD001B050EA410C0CBF52EA430C49
:1006700091EA030F02BF90EA020F0020704710F1C9
:10068000000F91EA030F58BF994208BF90422CBF58
:10069000D8176FEAE37040F0010070474FEA410C51
:1006A0007FEA6C5C02D150EA013C07D14FEA430C6F
:1006B0007FEA6C5CD6D152EA033CD3D05DF8040BE0
:1006C000704700BF8446104662468C461946634612
:1006D00000E000BF01B5FFF7B7FF002848BF10F1E9
:1006E000000F01BD4DF808EDFFF7F4FF0CBF01202E
:1006F00000205DF808FB00BF4DF808EDFFF7EAFFAA
:1007000034BF012000205DF808FB00BF4DF808ED64
:10071000FFF7E0FF94BF012000205DF808FB00BF59
:100720004DF808EDFFF7CEFF94BF012000205DF8E3
:1007300008FB00BF4DF808EDFFF7C4FF34BF0120F0
:1007400000205DF808FB00BF4FEA410212F50012DD
:1007500015D211D56FF47873B3EB625212D94FEA08
:10076000C12343F0004343EA505311F0004F23FAF2
:1007700002F018BF404270474FF00000704750EA47
:10078000013005D111F0004008BF6FF00040704704
:100790004FF00000704700BF4FEA4102B2F1E04362
:1007A00024BFB3F5001CDCF1FE5C0DD901F0004C58
:1007B0004FEAC0024CEA5070B2F1004F40EB8300A8
:1007C00008BF20F00100704711F0804F21D113F1D4
:1007D0003872BCBF01F00040704741F480114FEA0D
:1007E0005252C2F11802C2F1200C10FA0CF320FA96
:1007F00002F018BF40F001004FEAC1234FEAD323B3
:1008000003FA0CFC40EA0C0023FA02F34FEA43031C
:10081000CCE77FEA625307D150EA01331EBF4FF0A5
:10082000FE4040F44000704701F0004040F0FE40C0
:1008300040F40000704700BF53B94AB9002908BF0F
:1008400000281CBF4FF0FF314FF0FF3000F00CB814
:10085000ADF1080C6DE904CE0CF0DAFDDDF804E032
:10086000DDE9022304B07047704700BF844641EAC7
:10087000000313F003036DD1403A41D351F8043B18
:1008800040F8043B51F8043B40F8043B51F8043B6A
:1008900040F8043B51F8043B40F8043B51F8043B5A
:1008A00040F8043B51F8043B40F8043B51F8043B4A
:1008B00040F8043B51F8043B40F8043B51F8043B3A
:1008C00040F8043B51F8043B40F8043B51F8043B2A
:1008D00040F8043B51F8043B40F8043B51F8043B1A
:1008E00040F8043B51F8043B40F8043B51F8043B0A
:1008F00040F8043B51F8043B40F8043B403ABDD279
:10090000303211D351F8043B40F8043B51F8043B1A
:1009100040F8043B51F8043B40F8043B51F8043BD9
:1009200040F8043B103AEDD20C3205D351F8043BA9
:1009300040F8043B043AF9D2043208D0D2071CBF75
:1009400011F8013B00F8013B01D30B88038060469E
:10095000704700BF082A13D38B078DD010F0030314
:100960008AD0C3F10403D21ADB071CBF11F8013B84
:1009700000F8013B80D331F8023B20F8023B7BE7D3
:10098000043AD9D3013A11F8013B00F8013BF9D2FE
:100990000B7803704B7843708B7883706046704798
:1009A0000000000000000000000000000000000047
:1009B0000000000000000000000000000000000037
:1009C00090F800F06DE9024520F007016FF0000C8F
:1009D00010F0070491F820F040F049804FF0000437
:1009E0006FF00700D1E9002391F840F000F1080012
:1009F00082FA4CF2A4FA8CF283FA4CF3A2FA8CF34A
:100A00004BBBD1E9022382FA4CF200F10800A4FAB0
:100A10008CF283FA4CF3A2FA8CF3E3B9D1E9042304
:100A200082FA4CF200F10800A4FA8CF283FA4CF33B
:100A3000A2FA8CF37BB9D1E9062301F1200182FAF5
:100A40004CF200F10800A4FA8CF283FA4CF3A2FAFB
:100A50008CF3002BC6D0002A04BF04301A4612BA09
:100A6000B2FA82F2FDE8024500EBD2007047D1E90C
:100A7000002304F00305C4F100004FEAC50514F09B
:100A8000040F91F840F00CFA05F562EA05021CBF6C
:100A900063EA050362464FF00004A9E70000000086
:100AA00001F0FF01102A2BDB10F0070F08D010F81F
:100AB000013B013A8B422DD010F0070F42B3F6D123
:100AC000F0B441EA012141EA014122F007047FF03C
:100AD00000070023F0E80256083C85EA010586EA93
:100AE000010685FA47F5A3FA87F586FA47F6A5FACF
:100AF00087F68EB9EED1F0BC01F0FF0102F00702DB
:100B000032B110F8013B013A83EA010313B1F8D185
:100B10000020704701387047002D06BF3546033866
:100B2000073815F0010F07D1013015F4807F02BF9F
:100B3000013015F4C03F0130F0BC0138704700BFF0
:100B400070B54FF0FF0C4CF4E06C1CEA11541DBF63
:100B50001CEA135594EA0C0F95EA0C0F00F0DEF82E
:100B60002C4481EA030621EA4C5123EA4C5350EA13
:100B7000013518BF52EA033541F4801143F4801364
:100B800038D0A0FB02CE4FF00005E1FB02E506F0F5
:100B90000042E0FB03E54FF00006E1FB03569CF04A
:100BA000000F18BF4EF0010EA4F1FF04B6F5007F50
:100BB00064F5407404D25FEA4E0E6D4146EB0606C2
:100BC00042EAC62141EA55514FEAC52040EA5E504B
:100BD0004FEACE2EB4F1FD0C88BFBCF5E06F1ED8F5
:100BE000BEF1004F08BF5FEA500E50F1000041EB2C
:100BF000045170BD06F0004646EA010140EA0200D9
:100C000081EA0301B4EB5C04C2BFD4EB0C0541EAFA
:100C1000045170BD41F480114FF0000E013C00F30F
:100C2000AB8014F1360FDEBF002001F0004170BD33
:100C3000C4F10004203C35DA0C341BDC04F114044C
:100C4000C4F1200500FA05F320FA04F001FA05F2D8
:100C500040EA020001F0004221F0004110EBD370A5
:100C600021FA04F642EB06015EEA430E08BF20EAD1
:100C7000D37070BDC4F10C04C4F1200500FA04F374
:100C800020FA05F001FA04F240EA020001F0004106
:100C900010EBD37041F100015EEA430E08BF20EA79
:100CA000D37070BDC4F1200500FA05F24EEA020EC1
:100CB00020FA04F301FA05F243EA020321FA04F0F0
:100CC00001F0004121FA04F220EA020000EBD370A7
:100CD0005EEA430E08BF20EAD37070BD94F0000FA7
:100CE0000FD101F00046400041EB010111F4801FDB
:100CF00008BF013CF7D041EA060195F0000F18BF8C
:100D0000704703F00046520043EB030313F4801FC7
:100D100008BF013DF7D043EA0603704794EA0C0F81
:100D20000CEA135518BF95EA0C0F0CD050EA410697
:100D300018BF52EA4306D1D181EA030101F0004114
:100D40004FF0000070BD50EA410606BF104619463C
:100D500052EA430619D094EA0C0F02D150EA013648
:100D600013D195EA0C0F05D152EA03361CBF104689
:100D700019460AD181EA030101F0004141F0FE4128
:100D800041F470014FF0000070BD41F0FE4141F4AC
:100D9000780170BD70B54FF0FF0C4CF4E06C1CEAAC
:100DA00011541DBF1CEA135594EA0C0F95EA0C0F61
:100DB00000F0A7F8A4EB050481EA030E52EA03351C
:100DC0004FEA013100F088804FEA03334FF080553D
:100DD00045EA131343EA12634FEA022245EA11156A
:100DE00045EA10654FEA00260EF000419D4208BF1B
:100DF000964244F1FD0404F5407402D25B084FEAC8
:100E00003202B61A65EB03055B084FEA32024FF473
:100E100080104FF4002CB6EB020E75EB030E22BFD0
:100E2000B61A754640EA0C005B084FEA3202B6EB90
:100E3000020E75EB030E22BFB61A754640EA5C003F
:100E40005B084FEA3202B6EB020E75EB030E22BFCF
:100E5000B61A754640EA9C005B084FEA3202B6EBD0
:100E6000020E75EB030E22BFB61A754640EADC008F
:100E700055EA060E18D04FEA051545EA16754FEAF1
:100E800006164FEAC30343EA52734FEAC2025FEA0F
:100E90001C1CC0D111F4801F0BD141EA00014FF09E
:100EA00000004FF0004CB6E711F4801F04BF01436F
:100EB0000020B4F1FD0C88BFBCF5E06F3FF6AFAE8B
:100EC000B5EB030C04BFB6EB020C5FEA500C50F11B
:100ED000000041EB045170BD0EF0004E4EEA11319E
:100EE00014EB5C04C2BFD4EB0C0541EA045170BDA5
:100EF00041F480114FF0000E013C90E645EA060EE9
:100F00008DE60CEA135594EA0C0F08BF95EA0C0F16
:100F10003FF43BAF94EA0C0F0AD150EA01347FF45E
:100F200034AF95EA0C0F7FF425AF104619462CE735
:100F300095EA0C0F06D152EA03353FF4FDAE104698
:100F4000194622E750EA410618BF52EA43067FF4E9
:100F5000C5AE50EA41047FF40DAF52EA43057FF479
:100F6000EBAE12E74FEA410C7FEA6C5C02D150EA2B
:100F7000013C0AD14FEA430C7FEA6C5C02D152EA91
:100F8000033C02D14FF0000070474FF00100704762
:100F90004A0011D212F5001211D20DD56FF47873F8
:100FA000B3EB62520ED44FEAC12343F0004343EA4D
:100FB000505323FA02F070474FF00000704750EA98
:100FC000013002D14FF0FF3070474FF00000704702
:100FD0000348044B834202D0034B03B118477047C8
:100FE000900A0024900A00240000000005480649E9
:100FF0000B1AD90F01EBA301491002D0034B03B127
:1010000018477047900A0024900A0024000000004E
:1010100010B5064C237843B9FFF7DAFF044B13B140
:101020000448AFF300800123237010BD900A002410
:10103000000000007056010808B5054B1BB10549BA
:101040000548AFF30080BDE80840FFF7CFBF00BF01
:1010500000000000940A0024705601087047000048
:10106000034B0360034B0B604FF4807313607047B6
:10107000C80E0024C40A002410B50BF005FD0022A0
:1010800005210A2001F058FA0A2001F08BFA0BF032
:1010900089F915E00134042C0FDC0A4B33F82400E5
:1010A0000028F7D003EB840359880029F2D04FF4CD
:1010B000784305220BF0F0FEECE7322009F076FDD4
:1010C0000024E8E7AC0A0024054B064A1A60002217
:1010D0005A609A604FF48041D9601A615A61704732
:1010E000701600240070005238B5134809F0CDFD89
:1010F000124D28600021124809F034FE114C206086
:10110000286809F0F8FD01460F4B03600F4B436060
:1011100042F62E7383600022206809F038FE6420B6
:1011200009F044FD02210A4802F09FFF4FF4FA70D3
:1011300009F03CFDF6E700BF5457010838190024B8
:10114000345701084813002442CF0E40D044583C85
:101150000000025810B5012426E00133632B05DCA2
:10116000154AD25C002AF8D00024F6E7CCB9124C1C
:10117000214612480CF000F920460CF02FF910EE31
:10118000100AFFF701FA02460B460D480CF0F4F87E
:101190006422002120460CF081FD0A4808F08EF8F8
:1011A0000124322009F002FD64220349054808F0B9
:1011B0006BFE0023D2E700BF40190024EC56010863
:1011C00004570108A41800242DE9F04F8DB0002425
:1011D0000794089409940A940B94614BD3F8E02087
:1011E00042F01002C3F8E020D3F8E02002F0100231
:1011F0000192019AD3F8E02042F08002C3F8E02087
:10120000D3F8E02002F080020292029AD3F8E020A4
:1012100042F00102C3F8E020D3F8E02002F001021E
:101220000392039AD3F8E02042F00402C3F8E020CE
:10123000D3F8E02002F004020492049AD3F8E020EC
:1012400042F00202C3F8E020D3F8E02002F00202EC
:101250000592059AD3F8E02042F00802C3F8E02096
:10126000D3F8E03003F008030693069BDFF8F8801C
:1012700001220221404602F0F2FEDFF8F0A02246F1
:101280001021504602F0EBFE364F2246012138462F
:1012900002F0E5FE01220221384602F0E0FEDFF80E
:1012A000D09001228021484602F0D9FE08230793FE
:1012B00008940125099507A9484602F0B9FD07954C
:1012C00008940226099607A9404602F0B1FD079648
:1012D000089509940A9407A9404602F0A9FD4FF029
:1012E000100BCDF81CB04FF404130893099407A910
:1012F000404602F09DFDCDF81CB0089509950A9670
:1013000007A9504602F094FD2023079308940995FD
:1013100007A9504602F08CFD0795089509950A9497
:1013200007A9384602F084FD0796089509950A96A4
:1013300007A9384602F07CFD80230793089509949D
:101340000A9407A9484602F073FD224606210A20A6
:1013500001F0F2F80A2001F025F90DB0BDE8F08F98
:1013600000440258000402580000025800080258C5
:101370000010025800B583B0174BD3F8D82042F0C4
:101380000102C3F8D820D3F8D83003F00103019349
:10139000019B002206210B2001F0CEF80B2001F06A
:1013A00001F9002206210C2001F0C6F80C2001F002
:1013B000F9F8002206210D2001F0BEF80D2001F001
:1013C000F1F8002205210E2001F0B6F80E2001F000
:1013D000E9F803B05DF804FB0044025810B584B08E
:1013E00000224FF40071224802F039FE21480BF030
:1013F000C3FF0021204809F0A4FB204B1860002106
:101400001F4809F09EFB1F4B186000211E4809F081
:1014100098FB1E4B18601E480BF0AEFF00240CE03A
:101420001C4B33F8243000934FF4F0734FF4A07248
:10143000002108460BF008FD0134142CF0DD0023D8
:10144000029320230193134BB3F8503000934FF4D1
:101450007843114AF02196200BF022FE4FF40071E0
:10146000034802F002FE4FF47A7009F09FFBF5E7A3
:10147000000C0258145701087C570108501300242F
:101480009857010854130024605701084C13002496
:1014900020570108048C01082857010872B6FEE79E
:1014A00000B583B01E4BD3F8D42042F00102C3F83C
:1014B000D420D3F8D43003F001030193019B1948E1
:1014C000194B03601D23436000238360C3600361E5
:1014D0000222426108228261C36103624FF00072FE
:1014E000426201228262C36203634363836303F047
:1014F00013FA80B9002211460A4803F03DFA60B998
:10150000002206217A2001F017F87A2001F04AF82B
:1015100003B05DF804FBFFF7C1FFFFF7BFFF00BF9B
:1015200000440258B81500244000005208B5154880
:10153000154B03604FF4E133436000238360C360C5
:1015400003610C2242618361C3610362436283626F
:1015500008F00FFC70B900210A4808F000FD58B9E6
:101560000021084808F020FD40B9064808F0D8FCE2
:1015700030B908BDFFF792FFFFF790FFFFF78EFF2E
:10158000FFF78CFFA41800240010014008B508489C
:10159000084B03600023037143714361836101239E
:1015A000036201F021F800B908BDFFF777FF00BF23
:1015B00060130024004C025808B51348134B036015
:1015C000A3F17863A3F57D23A3F64F634360002363
:1015D00083600122C260036143618361C36103626E
:1015E00002F00AFF50B90021074803F0DFF838B9CC
:1015F0000021054803F008F920B908BDFFF74EFFA8
:10160000FFF74CFFFFF74AFF641500240054004029
:1016100008B50A480A4B0360FF2343600123836037
:101620000023C3600822026143618361C3610362D6
:1016300003F006FB00B908BDFFF730FF24160024B5
:101640000050005208B51548154B03604FF4800355
:1016500043604FF4003383600723C36000230361BA
:1016600043614FF080628261C361036243628362BF
:10167000C3624FF0804242638363C3630364436485
:101680008364C36403654FF000424265836506F0DE
:10169000C5FD00B908BDFFF701FF00BFEC1600242F
:1016A0000030014000B58DB02422002103A80CF0C9
:1016B000F5FA00230093019302931148114A026046
:1016C000436083604FF6FF72C260036143618361D0
:1016D000012303930593099303A907F017FC58B955
:1016E00000230093019302936946054807F050FDDB
:1016F00020B90DB05DF804FBFFF7D0FEFFF7CEFE7A
:10170000741700240000014000B58DB02422002190
:1017100003A80CF0C3FA002300930193029311482D
:101720004FF080420260436083604FF0FF32C2603E
:1017300003618361012303930593099303A907F0D0
:10174000E5FB50B90023009302936946054807F072
:101750001FFD20B90DB05DF804FBFFF79FFEFFF7FA
:101760009DFE00BFC017002400B58BB00023079377
:1017700008930993009301930293039304930593B1
:1017800006931748174A0260EF22426083604FF6C3
:10179000FF72C26003618023836107F087FBC0B9D9
:1017A00000230793099307A90D4807F0F1FC90B9AE
:1017B0006023009300220192029204926946084835
:1017C00007F048FC48B9064800F020FC0BB05DF873
:1017D00004FBFFF763FEFFF761FEFFF75FFE00BF4C
:1017E0000C1800240004004000B58BB000230793C0
:1017F0000893099300930193029303930493059331
:1018000006931748174A0260EF22426083604FF642
:10181000FF72C26003618023836107F047FBC8B990
:1018200000230793099307A90D4807F0B1FC98B965
:1018300060230093002301930293049304226946DA
:10184000074807F007FC48B9054800F0DFFB0BB07C
:101850005DF804FBFFF722FEFFF720FEFFF71EFEF8
:10186000581800240008004000B59FB04C22002109
:101870000BA80CF013FA2022002103A80CF00EFA9A
:10188000022003F087F9002300933B4BDA6A22F031
:101890000102DA62DB6A03F001030093374B9A69B5
:1018A00042F440429A619B6903F440430093009BD9
:1018B000324B9B6913F4005FFAD0314BD3F8F4201C
:1018C00042F00202C3F8F420D3F8F43003F002032C
:1018D0000193019B00230293284B9A6942F44042F2
:1018E0009A619B6903F440430293234BDA6A42F006
:1018F0000102DA62DB6A03F001030293029B1F4BD1
:101900009B6913F4005FFAD003230B934FF48033E9
:101910000C9301230E9340230F93022314931593EA
:1019200005221692C02217921893199304231A9332
:1019300008231B9300231C931D930BA803F0D4F9D9
:10194000B0B93F2303930323049300230593082393
:1019500006934023079308934FF4806209920A93F9
:10196000042103A803F014FE20B91FB05DF804FBA6
:10197000FFF794FDFFF792FD00040058004802585D
:101980000044025800B5B1B0C022002168460CF0F6
:1019900085F94FF488320023CDE900230823029310
:1019A0008023039302230493059306934023079314
:1019B0004FF4803314934FF480531893684604F027
:1019C00083F810B931B05DF804FBFFF767FD000044
:1019D00000B589B000F044FDFFF746FFFFF7D2FFE6
:1019E000FFF7F2FBFFF75CFDFFF7C4FC08F0C8FE51
:1019F000FFF79CFDFFF768FBFFF7C8FDFFF7DCFD75
:101A0000FFF706FEFFF71EFEFFF74CFEFFF77CFE1A
:101A1000FFF7AAFEFFF7E8FE114B93E807000BF073
:101A200079F90BF0D3FB0F4809F0C7F80E4B18609B
:101A30000E4809F0C2F80E4B18600DF1040C0D4C65
:101A40000FCCACE80F0094E807008CE807000021F9
:101A500001A809F076F8084B186009F05AF8FEE77B
:101A6000000000244C5701083C1900244457010889
:101A700058130024885601085C13002400B583B075
:101A80000A4BD3F8F42042F00202C3F8F420D3F852
:101A9000F43003F002030193019B00220F216FF049
:101AA000010000F049FD03B05DF804FB004402585A
:101AB00002680A4B9A4200D0704782B0A3F50063D7
:101AC000D3F8E02042F40022C3F8E020D3F8E0305D
:101AD00003F400230193019B02B07047004C0258AD
:101AE00030B5B9B004460021339134913591369127
:101AF0003791C02202A80CF0D1F82268384B9A42E4
:101B000001D039B030BD08220023CDE9022302A85C
:101B100003F0DAFF002859D1324DD5F8E03043F018
:101B20000203C5F8E030D5F8E03003F0020300937B
:101B3000009B4FF440733393122334930123359366
:101B4000032336930423379333A9274802F070F90F
:101B5000D5F8E83043F40013C5F8E830D5F8E8309C
:101B600003F400130193019B2048214B03602123C0
:101B7000436000238360C3604FF48062026143616D
:101B80008361C3614FF480320262436200F0BCFFA4
:101B9000F8B9164BE3639C631648174B0360222386
:101BA0004360402383600023C3604FF4806202617E
:101BB00043618361C3614FF480320262436200F08B
:101BC000A3FF48B90B4BA3639C639AE7FFF766FC3E
:101BD000A2E7FFF763FCDCE7FFF760FCF2E700BF7A
:101BE00000540040004402580004025884130024AA
:101BF00028000240FC13002440000240F0B5BBB0B6
:101C00000446002135913691379138913991C0229F
:101C100004A80CF043F82268384B9A4201D03BB03C
:101C2000F0BD4FF000720023CDE9042304A803F0B7
:101C30004BFF00285ED1324BD3F8D42042F48042CF
:101C4000C3F8D420D3F8D42002F480420092009A42
:101C5000D3F8E02042F01002C3F8E020D3F8E020EF
:101C600002F010020192019AD3F8E02042F0020241
:101C7000C3F8E020D3F8E02002F002020292029AB8
:101C8000D3F8E02042F00802C3F8E020D3F8E030B7
:101C900003F008030393039B04273597022436942B
:101CA0000025379538940926399635A9154802F04C
:101CB000BFF835973694379538943996124F35A931
:101CC000384602F0B5F84FF46053359336943795A3
:101CD0003894399635A90D4802F0AAF84023359377
:101CE0003694379538940A23399335A9384602F04B
:101CF0009FF894E7FFF7D2FB9DE700BF005000522A
:101D0000004402580010025800040258000C025807
:101D10002DE9F04389B000230393049305930693C0
:101D200007930268304B9A4202D009B0BDE8F083B5
:101D30002E4BD3F8D42042F48032C3F8D420D3F809
:101D4000D42002F480320092009AD3F8E02042F0CE
:101D50000402C3F8E020D3F8E02002F0040201926C
:101D6000019AD3F8E02042F00802C3F8E020D3F84B
:101D7000E03003F008030293029B4FF4885303936F
:101D8000022604964FF00108CDF81480032506952D
:101D90000C240794DFF85C900DEB0401484602F038
:101DA00047F84FF460630393049600270597069560
:101DB00007940DEB0401484602F03AF8042303931C
:101DC0000496CDF81480069507940DEB040108489D
:101DD00002F02EF83A460721312000F0ADFB312009
:101DE00000F0E0FBA1E700BF007000520044025881
:101DF000000C02580008025810B588B00023039365
:101E000004930593069307930268274B9A4201D0E7
:101E100008B010BD0446254BD3F8F02042F48052A0
:101E2000C3F8F020D3F8F02002F480520192019A16
:101E3000D3F8E02042F00102C3F8E020D3F8E0300C
:101E400003F001030293029BA02303930223049354
:101E500006930523079303A9154801F0E9FF1548E8
:101E6000154B036026234360402383600023C36037
:101E70004FF48062026143618361C3614FF4803239
:101E80000262436200F040FE58B90A4BA3679C63AC
:101E900000220521232000F04FFB232000F082FBCD
:101EA000B6E7FFF7FBFAF0E70030014000440258C4
:101EB00000000258741400241000024030B58BB0AA
:101EC0000023059306930793089309930368344A04
:101ED000934204D0B3F1804F26D00BB030BD314BCC
:101EE000D3F8F02042F00102C3F8F020D3F8F0203C
:101EF00002F001020092009AD3F8E02042F01002B2
:101F0000C3F8E020D3F8E03003F010030193019B05
:101F10004FF420630593022306930123099305A937
:101F2000214801F085FFD8E71E4BD3F8E82042F0A6
:101F30000102C3F8E820D3F8E82002F0010202927F
:101F4000029AD3F8E02042F00102C3F8E020D3F86F
:101F5000E02002F001020392039AD3F8E02042F05D
:101F60000202C3F8E020D3F8E03003F00203049348
:101F7000049B4FF400430593022506950124099420
:101F800005A90A4801F054FF08230593069500238C
:101F900007930893099405A9054801F049FF9CE7B8
:101FA000000001400044025800100258000002588E
:101FB0000004025882B00368114A934204D0114AC7
:101FC00093420FD002B070470F4BD3F8E82042F095
:101FD0000202C3F8E820D3F8E83003F002030093CC
:101FE000009BEFE7084BD3F8E82042F00402C3F867
:101FF000E820D3F8E83003F004030193019BE1E704
:1020000000040040000800400044025800B589B0B8
:1020100000230393049305930693079303681B4AD5
:10202000934205D01A4A934219D009B05DF804FBD7
:10203000184BD3F8E02042F00102C3F8E020D3F8B7
:10204000E03003F001030193019B4023039302233B
:102050000493079303A9104801F0EAFEE5E70D4B4E
:10206000D3F8E02042F00202C3F8E020D3F8E030D9
:1020700003F002030293029B802303930223049341
:10208000079303A9054801F0D3FECEE70004004002
:1020900000080040004402580000025800040258A2
:1020A00030B5B9B004460021339134913591369161
:1020B0003791C02202A80BF0F1FD2268294B9A4209
:1020C00001D039B030BD01220023CDE9022318230D
:1020D000219302A803F0F8FC00283DD1224BD3F84D
:1020E000F02042F01002C3F8F020D3F8F02002F004
:1020F00010020092009AD3F8E02042F00202C3F8E6
:10210000E020D3F8E03003F002030193019B4FF489
:1021100040433393022334930025359536950423A9
:10212000379333A9114801F083FE1148114B036026
:10213000292343608560C5604FF480630361456176
:102140008561C5610562456200F0DEFC38B9084B67
:10215000C4F880309C63B4E7FFF7A0F9BEE7FFF74F
:102160009DF9F4E7001001400044025800040258B1
:10217000EC14002458000240FEE7FEE7FEE7FEE70D
:10218000FEE7704708B500F099F90AF055FB012801
:1021900000D108BD08F08EFFFBE708B5102001F064
:1021A0006DFF08BD08B5024801F0A4FA08BD00BFE4
:1021B0007414002408B5024801F09CFA08BD00BF61
:1021C0008413002408B5024801F094FA08BD00BF4A
:1021D000FC13002408B5024801F08CFA08BD00BFCA
:1021E000EC14002408B5024806F072FB08BD00BFDD
:1021F000EC16002408B5024805F066FE08BD00BFD5
:102200007016002408B5024802F0EAFB08BD00BFC2
:10221000B815002470470000102800D0704708B59A
:10222000024903480AF0C2FD08BD00BFC00A0024ED
:10223000AC0A00240120704708B50BF055FA1623AC
:1022400003604FF0FF3008BD08B54FF0FF31FFF7D6
:10225000F3FFFEE770B50C461646002506E0AFF327
:102260000080214601F8010B01350C46B542F6DB32
:10227000304670BD70B50C461646002504E014F8D3
:10228000010BAFF300800135B542F8DB304670BD7D
:102290004FF0FF3070474FF400534B600020704701
:1022A000012070470020704710B503460C4A0D49C5
:1022B0000D48006840B10C4800680344521A93422C
:1022C00006D8094A136010BD0748084C0460F2E7BD
:1022D0000BF00AFA0C2303604FF0FF30F3E700BF66
:1022E0000000082400400000A419002420BD0024A0
:1022F000274AD2F8883043F47003C2F88830254B5F
:102300001B6803F00F03062B06D8224A136823F03C
:102310000F0343F0070313601F4B1A6842F00102DA
:102320001A6000221A6119681C4A0A401A60194B87
:102330001B6813F0080F06D0164A136823F00F032A
:1023400043F007031360144B00229A61DA611A62AA
:10235000134999621349D962134919635A639963FE
:10236000DA6319645A64196821F4802119601A66C5
:102370000E4B1A680E4B1340B3F1005F03D20D4BA6
:102380000122C3F808210C4B43F2D2021A607047B5
:1023900000ED00E000200052004402587FEDF6EA14
:1023A000000202020000FF01800201010010005C37
:1023B0000000FFFF0080005100400052DFF834D0E1
:1023C000FFF796FF0C480D490D4A002302E0D45850
:1023D000C4500433C4188C42F9D30A4A0A4C00236F
:1023E00001E013600432A242FBD30BF083F9FFF744
:1023F000EFFA70470000082400000024900A00242F
:102400003C920108900A002420BD0024FEE7000051
:10241000104B1B780BB90120704710B504464FF4E0
:102420007A70B0FBF3F30C4A1068B0FBF3F000F0E5
:10243000C7F868B90F2C01D901200AE00022214613
:102440004FF0FF3000F078F8044B1C60002000E0F3
:10245000012010BD140000240C00002418000024EA
:1024600010B5032000F056F802F098FF0F498B6971
:10247000C3F303230E4AD35C03F01F03D8408B69D8
:1024800003F00F03D35C03F01F0320FA03F3094AA0
:102490001360094B18600F20FFF7BAFF10B1012439
:1024A000204610BD0446FFF7E9FAF9E70044025858
:1024B000B4570108100000240C000024034B1B78C3
:1024C000034A11680B441360704700BF14000024D6
:1024D000A8190024014B1868704700BFA8190024F0
:1024E00038B50446FFF7F6FF0546B4F1FF3F02D0CA
:1024F000044B1B781C44FFF7EDFF401BA042FAD3AE
:1025000038BD00BF14000024014B1868000C704750
:102510000010005C0649CB6823F4E0631B041B0C2D
:10252000000200F4E0600343024A1A43CA607047A5
:1025300000ED00E00000FA0500B5174BDB68C3F3BF
:102540000223C3F1070CBCF1040F28BF4FF0040CA9
:1025500003F1040EBEF1060F14D9033B4FF0FF3E0A
:102560000EFA0CFC21EA0C0199400EFA03F322EA60
:1025700003031943002807DB0901C9B2074B1954AB
:102580005DF804FB0023E9E700F00F000901C9B280
:10259000034B1954F4E700BF00ED00E000E400E055
:1025A00014ED00E0002807DB00F01F0240090123C2
:1025B0009340024A42F82030704700BF00E100E03B
:1025C0000138B0F1807F0BD24FF0E0235861054A0B
:1025D000F02182F823100020986107221A617047C9
:1025E0000120704700ED00E0002838D010B5044607
:1025F000437F1BB30223637723791BBB2368194AEC
:102600005A612268936823F018039360637913BBBF
:1026100023684FF0FF321A612268936823F0600349
:1026200061690B4393602268936823F08003A1697A
:102630000B43936001236377002010BD0377FFF7FE
:1026400037FAD7E7E268A168204600F00DF80028C5
:10265000DCD00120F1E7236822691A61DCE7012060
:10266000704700BFB71DC10411F0010F30D010B486
:102670001F231C46013B34B103F01F0C21FA0CFC54
:102680001CF0010FF5D0182A24D8DFE802F00F2340
:102690002323232323231D2323232323232319231A
:1026A0002323232323230D00062B17D80368596106
:1026B00001688B6823F018031A438A6000200AE03F
:1026C000072BF3D9012006E00F2BEFD9012002E000
:1026D0000120704701205DF8044B70470120FAE7A4
:1026E000F0B4876D0468664E664DAC4218BFB442C4
:1026F00042D01835AC423FD01835AC423CD01835EA
:10270000AC4239D01835AC4236D01835AC4233D053
:102710001835AC4230D005F55675AC422CD0183582
:10272000AC4229D01835AC4226D01835AC4223D063
:102730001835AC4220D01835AC421DD01835AC420B
:102740001AD01835AC4217D04F4DAC4214D01435C6
:10275000AC4211D01435AC420ED01435AC420BD083
:102760001435AC4208D01435AC4205D01435AC4217
:1027700002D01435AC4207D1446E856E6560C46EDC
:1027800014B1046F456F656004683D4E3D4DAC4229
:1027900018BFB44252D01835AC424FD01835AC42B5
:1027A0004CD01835AC4249D01835AC4246D018351B
:1027B000AC4243D01835AC4240D005F55675AC421A
:1027C0003CD01835AC4239D01835AC4236D018352B
:1027D000AC4233D01835AC4230D01835AC422DD095
:1027E0001835AC422AD01835AC4227D0264E274D9A
:1027F000AC4218BFB44211D0254DAC420ED01435B6
:10280000AC420BD01435AC4208D01435AC4205D0E4
:102810001435AC4202D01435AC4224D1C46D04F05E
:102820001F050124AC407C60046863608368402B12
:1028300020D0036899600368DA6014E0C46D04F086
:102840001F0C3F2404FA0CF4BC6005682C6824F4C7
:1028500080242C60046863608368402B05D0036883
:1028600099600368DA60F0BC704703689A60036897
:10287000D960F8E703689A600368D960F3E700BF9E
:102880001000024028000240085402581C5402580C
:102890003054025803682749274A934218BF8B4295
:1028A0002FD0183293422CD01832934229D01832AC
:1028B000934226D01832934223D01832934220D02C
:1028C000183293421DD002F55672934219D0183235
:1028D000934216D01832934213D01832934210D03C
:1028E000183293420DD0183293420AD018329342D4
:1028F00007D01832934204D023F0FF038365806D24
:10290000704710B4D9B210390C4AA2FB0142C2F38D
:1029100002120B4CA25CC2655F2907D9094A1A4012
:1029200004328265806D5DF8044B7047054A1A4099
:102930008265F7E71000024028000240ABAAAAAA6D
:10294000C457010800FCFFFF83699BB9836A012B10
:102950000AD0022B02D00BB100207047C36A13F0DB
:10296000807F2AD100207047C36AB3F1C07F26D090
:1029700000207047B3F5005F0AD0836A022B26D986
:10298000032B26D1C36A13F0807F24D10020704727
:10299000836A032B03D8DFE803F01404140A002031
:1029A0007047C36A13F0807F0DD100207047C36A5F
:1029B000B3F1C07F09D0002070470120704701208B
:1029C00070470120704701207047012070470120A7
:1029D00070470020704701207047000003682249BB
:1029E000224A934218BF8B4228D01432934225D0FA
:1029F0001432934222D0143293421FD014329342A5
:102A00001CD01432934219D01432934216D0DAB249
:102A1000103A1749A1FB0212120916491944A829B4
:102A20001FD9154B13449B000366144B436602F0F9
:102A30001F02012303FA02F282667047DBB2083BF1
:102A40000F4AA2FB03230F4A02EB13129200026605
:102A50000D4A4266C3F30413012202FA03F38366AC
:102A600070470832DDE700BF085402581C54025872
:102A7000ABAAAAAAF0FBFDBF0082001080080240AA
:102A8000CDCCCCCC009600168058025801794A1E55
:102A9000072A2CD830B40368154D164CA34218BF32
:102AA000AB4218D01434A34215D01434A34212D030
:102AB0001434A3420FD01434A3420CD01434A342D4
:102AC00009D01434A34206D00B4B0B449B00C366C1
:102AD0000A4B036705E00A4B0B449B00C366094B96
:102AE0000367012303FA02F2426730BC7047704764
:102AF000085402581C5402583F82001040090240FA
:102B00003F9600164059025870B50446FFF7E2FCA4
:102B1000002C00F0B681054623685349534A93427E
:102B200018BF8B420CBF0122002250D030318B42A3
:102B30004DD018318B424AD018318B4247D01831D2
:102B40008B4244D018318B4241D018318B423ED059
:102B500001F556718B423AD018318B4237D018317B
:102B60008B4234D018318B4231D018318B422ED069
:102B700018318B422BD018318B4228D018318B4220
:102B800025D03B493B4A934218BF8B4200F031812C
:102B9000394A934200F02D811432934200F029818A
:102BA0001432934200F025811432934200F02181C7
:102BB0001432934200F01D811432934200F01981C7
:102BC00040236365032384F8353001204AE0022165
:102BD00084F83510002184F834107ABB274A9342D8
:102BE0002CD01832934229D01832934226D0183272
:102BF000934223D01832934220D0183293421DD0F2
:102C000002F55672934219D01832934216D01832F8
:102C1000934213D01832934210D0183293420DD001
:102C2000183293420AD01832934207D01832934296
:102C300004D01A6822F001021A6003E01A6822F038
:102C400001021A6023681A6812F0010F18D0FFF70A
:102C500041FC431B052BF5D920236365032384F82E
:102C60003530012070BD00BF100002402800024036
:102C7000085402581C540258305402584000024074
:102C80001A6881481040A168E2680A4321690A4332
:102C900061690A43A1690A43E1690A43216A0A4357
:102CA0000243616A042900F09980784908687849EC
:102CB0000140B1F1005F11D36168A1F12905A1F1D3
:102CC0003F00032888BF052D06D9A1F14700012840
:102CD00002D94F39032901D842F480121A602668BC
:102CE000756925F00705636A1D43042B08D1A36AA3
:102CF0001D43E36A23B12046FFF726FE002872D168
:102D000075612046FFF7C6FDE36D03F01F023F2308
:102D10009340836023685F495F4A934218BF8B42A8
:102D200042D0183293423FD0183293423CD01832EE
:102D3000934239D01832934236D01832934233D06E
:102D40001832934230D002F5567293422CD018328A
:102D5000934229D01832934226D01832934223D07E
:102D60001832934220D0183293421DD01832934229
:102D70001AD01832934217D0484A934214D01432D2
:102D8000934211D0143293420ED0143293420BD09E
:102D90001432934208D01432934205D01432934235
:102DA00002D01432934213D12046FFF717FEA368D6
:102DB000802B59D0236E22791A60636EA26E5A60FE
:102DC0006368013B072B52D90023E36623676367DF
:102DD00000206065012384F8353043E7E16A206B09
:102DE00001430A4361E740236365012084F835000D
:102DF00038E7022284F83520002284F834201A684B
:102E000027491140A268402A2CD0802A27D00022CE
:102E1000E06842EAD002206942EAD002606942EAF0
:102E2000D002A06942EAD002E06942EAD002206AF8
:102E300042EA10120A431A6022681A4B13441A4AD3
:102E4000A2FB03231B099B00E3652046FFF722FD3D
:102E5000E26D02F01F0101228A4042605AE74FF4FE
:102E60008042D5E71022D3E700236360A2E7204623
:102E7000FFF70CFEE36E00221A60236F626F5A6048
:102E8000A6E70120EEE600BF3F8010FE0010005CC8
:102E90000000FFFF100002402800024008540258C2
:102EA0000F00FEFFF8ABFDA7CDCCCCCC002800F086
:102EB0003E8170B5044690F83400012800F0398155
:102EC000012084F8340094F83500C0B2012807D0FE
:102ED0004FF400636365002384F83430012070BD33
:102EE000022084F83500002060652068924E934DE2
:102EF000A84218BFB0422FD01835A8422CD01835A0
:102F0000A84229D01835A84226D01835A84223D087
:102F10001835A84220D01835A8421DD005F55675A1
:102F2000A84219D01835A84216D01835A84213D097
:102F30001835A84210D01835A8420DD01835A8422F
:102F40000AD01835A84207D01835A84204D0056821
:102F500025F00105056003E0056825F00105056021
:102F60002046FFF7BDFB23687349744A934218BF9C
:102F70008B4238D01832934235D01832934232D037
:102F8000183293422FD0183293422CD018329342E9
:102F900029D01832934226D002F55672934222D09D
:102FA000183293421FD0183293421CD018329342E9
:102FB00019D01832934216D01832934213D01832D7
:102FC000934210D0183293420DD01A6822F00E02AC
:102FD00042F00A021A60236C93B12268136843F02E
:102FE000040313600CE01A6822F01E0242F016027D
:102FF0001A60236C23B12268136843F0080313603E
:1030000023684D494D4A934218BF8B4242D0183233
:1030100093423FD0183293423CD01832934239D079
:103020001832934236D01832934233D0183293423A
:1030300030D002F5567293422CD01832934229D0E8
:103040001832934226D01832934223D0183293423A
:1030500020D0183293421DD0183293421AD0183221
:10306000934217D0364A934214D01432934211D06F
:10307000143293420ED0143293420BD01432934246
:1030800008D01432934205D01432934202D0143245
:1030900093420ED1236E1A6812F4803F03D01A684F
:1030A00042F480721A60E36E1BB11A6842F48072B7
:1030B0001A6023682049214A934218BF8B4230D0BE
:1030C000183293422DD0183293422AD018329342AC
:1030D00027D01832934224D01832934221D018328C
:1030E00093421ED002F5567293421AD01832934280
:1030F00017D01832934214D01832934211D018329C
:1031000093420ED0183293420BD01832934208D01B
:103110001832934205D01A6842F001021A6000206A
:10312000DDE61A6842F001021A600020D7E60120AD
:1031300070470220D3E600BF100002402800024082
:103140000854025870B50446FFF7C4F9002C00F08B
:103150009181054694F83530DBB2022B06D08023EE
:103160006365002384F83430012070BD23688C49E6
:103170008C4A934218BF8B4230D0183293422DD0E4
:10318000183293422AD01832934227D018329342F1
:1031900024D01832934221D0183293421ED002F527
:1031A000567293421AD01832934217D01832934273
:1031B00014D01832934211D0183293420ED01832E4
:1031C00093420BD01832934208D01832934205D064
:1031D0001A6822F00E021A60266809E01A6822F0C6
:1031E0001E021A602268536923F080035361266827
:1031F00023686B496B4A934218BF8B4242D0183206
:1032000093423FD0183293423CD01832934239D087
:103210001832934236D01832934233D01832934248
:1032200030D002F5567293422CD01832934229D0F6
:103230001832934226D01832934223D01832934248
:1032400020D0183293421DD0183293421AD018322F
:10325000934217D0544A934214D01432934211D05F
:10326000143293420ED0143293420BD01432934254
:1032700008D01432934205D01432934202D0143253
:10328000934204D1226E136823F480731360236881
:103290004349444A934218BF8B422FD0183293427D
:1032A0002CD01832934229D01832934226D01832AB
:1032B000934223D01832934220D0183293421DD02B
:1032C00002F55672934219D01832934216D0183232
:1032D000934213D01832934210D0183293420DD03B
:1032E000183293420AD01832934207D018329342D0
:1032F00004D01A6822F001021A6003E01A6822F072
:1033000001021A60336813F0010F0ED0FFF7E2F8E4
:10331000431B052BF6D920236365032384F835303E
:10332000002384F8343001201FE723681C491D4A1C
:10333000934218BF8B4239D01832934236D018329C
:10334000934233D01832934230D0183293422DD06A
:10335000183293422AD01832934227D002F556727F
:10336000934223D01832934220D0183293421DD07A
:10337000183293421AD01832934217D0183293421F
:1033800014D01832934211D0183293420ED0A16D4E
:10339000E36D03F01F02012393404B600DE000BF7B
:1033A000100002402800024008540258A16DE36D4D
:1033B00003F01F023F2393408B6023682E492F4A5E
:1033C000934218BF8B4242D0183293423FD01832FA
:1033D00093423CD01832934239D01832934236D0BF
:1033E0001832934233D01832934230D002F55672DD
:1033F00093422CD01832934229D01832934226D0CF
:103400001832934223D01832934220D0183293427C
:103410001DD0183293421AD01832934217D0184A4E
:10342000934214D01432934211D0143293420ED0EE
:10343000143293420BD01432934208D01432934288
:1034400005D01432934202D0143293420BD1636EF2
:10345000A26E5A60E36E33B11A6822F480721A6069
:10346000236F626F5A60012384F83530002084F89E
:1034700034007AE6012078E610000240280002407D
:1034800008540258002800F0298108B5024690F837
:103490003530DBB2022B03D080234365012008BD09
:1034A0000368904890498B4218BF83420CBF0121AA
:1034B000002166D03030834263D01830834260D020
:1034C000183083425DD0183083425AD0183083427E
:1034D00057D01830834254D000F55670834250D0F4
:1034E000183083424DD0183083424AD0183083427E
:1034F00047D01830834244D01830834241D018302E
:1035000083423ED0183083423BD0196821F00E012F
:1035100019601368A0F5956073498B4218BF834208
:103520006AD072498B4267D018318B4264D018310F
:103530008B4261D018318B425ED018318B425BD008
:1035400018318B4258D001F556718B4254D0183146
:103550008B4251D018318B424ED018318B424BD018
:1035600018318B4248D018318B4245D018318B42EC
:1035700042D018318B423FD0196821F00101196007
:103580003EE0042082F8350081BB584A93422DD09A
:10359000183293422AD01832934227D018329342DD
:1035A00024D01832934221D0183293421ED002F513
:1035B000567293421AD01832934217D0183293425F
:1035C00014D01832934211D0183293420ED01832D0
:1035D00093420BD01832934208D01832934205D050
:1035E0001A6822F001021A60002058E71A6822F0D7
:1035F00001021A60002052E7196821F001011960E8
:103600001368384838498B4218BF834242D018317A
:103610008B423FD018318B423CD018318B4239D08D
:1036200018318B4236D018318B4233D018318B424F
:1036300030D001F556718B422CD018318B4229D0F5
:1036400018318B4226D018318B4223D018318B424F
:1036500020D018318B421DD018318B421AD018312E
:103660008B4217D022498B4214D014318B4211D097
:1036700014318B420ED014318B420BD014318B425B
:1036800008D014318B4205D014318B4202D0143152
:103690008B4217D1116E0B6823F480730B60906D11
:1036A000D36D03F01F0101238B404360536E916E75
:1036B0005960D36E33B1196821F480711960136FAA
:1036C000516F5960012382F83530002382F834307D
:1036D000136D2BB1104698470020E0E6012070479B
:1036E0000020DCE6100002402800024040000240BA
:1036F00008540258F0B583B00446002301937D4B73
:103700001D687D4BA3FB0535AD0A876D3E68D7F874
:1037100000C0036879497A48834218BF8B420CBFC6
:103720000120002061D0774A93425ED01832934244
:103730005BD01832934258D01832934255D0183289
:10374000934252D0183293424FD002F556729342B0
:103750004BD01832934248D01832934245D0183299
:10376000934242D0183293423FD0183293423CD019
:103770001832934239D01832934236D06249634AA4
:10378000934218BF8B4212D0614A93420FD0143239
:1037900093420CD01432934209D01432934206D093
:1037A0001432934203D01432934240F061821A687B
:1037B000E16D01F01F010420884010EA0C0F00F0B9
:1037C000A78212F0040F00F0A382786012F4004F79
:1037D00000F05A8212F4803F40F05082A36C002B1C
:1037E00000F046822046984742E2E26D02F01F0157
:1037F00008228A40324241D070BB424A93422BD0C9
:103800001832934228D01832934225D0183293426E
:1038100022D0183293421FD0183293421CD002F5A6
:103820005672934218D01832934215D018329342F0
:1038300012D0183293420FD0183293420CD0183263
:10384000934209D01832934206D01832934203D0E3
:103850001A68C2F3C00202E01A68C2F380026AB1B9
:103860001A6822F004021A60E36D03F01F020823B5
:103870009340BB60636D43F001036365E26D02F04A
:103880001F0226FA02F313F0010F47D023681B48EA
:103890001B498B4218BF83423CD018318B4239D030
:1038A00018318B4236D018318B4233D018318B42CD
:1038B00030D018318B422DD018318B422AD001F5EF
:1038C00056718B4226D018318B4223D018318B424F
:1038D00020D018318B421DD018318B421AD01831AC
:1038E0008B4217D018318B4214D018318B4211D033
:1038F0001B6813E00C000024B5814E1B1000024031
:103900002800024040000240085402581C5402584B
:10391000305402585B6913F0800F3BD1E36D03F024
:103920001F03042202FA03F3334240D02268964870
:1039300096498A4218BF824235D018318A4232D025
:1039400018318A422FD018318A422CD018318A423D
:1039500029D018318A4226D018318A4223D001F565
:1039600056718A421FD018318A421CD018318A42BF
:1039700019D018318A4216D018318A4213D0183122
:103980008A4210D018318A420DD018318A420AD0AA
:1039900013680CE0012303FA02F2BA60636D43F08E
:1039A00002036365BAE7126812F0020F3DD1E36DBE
:1039B00003F01F03102202FA03F333425FD02268A0
:1039C000714872498A4218BF824234D018318A4203
:1039D00031D018318A422ED018318A422BD018317A
:1039E0008A4228D018318A4225D018318A4222D002
:1039F00001F556718A421ED018318A421BD0183107
:103A00008A4218D018318A4215D018318A4212D011
:103A100018318A420FD018318A420CD018318A42AC
:103A200009D01268C2F3800208E0BB60636D43F006
:103A300004036365BBE71268C2F3C002FAB1BB605E
:103A400023681A6812F4802F0DD01B6813F4002F1E
:103A500004D1236C9BB12046984710E0A36C73B14E
:103A6000204698470BE01A6812F4807F03D11A6849
:103A700022F008021A60236C0BB120469847E36DD0
:103A800003F01F03202202FA03F3334200F0928076
:103A900022683D483D498A4218BF82422ED01831E3
:103AA0008A422BD018318A4228D018318A4225D038
:103AB00018318A4222D018318A421FD018318A42E6
:103AC0001CD001F556718A4218D018318A4215D09F
:103AD00018318A4212D018318A420FD018318A42E6
:103AE0000CD018318A4209D018318A4206D01831D8
:103AF0008A4203D01268C2F3400202E01268C2F3A5
:103B00000012002A56D0BB6094F83530DBB2042B8B
:103B10000ED023681A6812F4802F39D01B6813F472
:103B2000002F2CD1636C002B44D02046984741E0F5
:103B30002268136823F0160313602268536923F088
:103B400080035361236CB3B12268136823F0080328
:103B50001360E36D03F01F023F239340BB6001231A
:103B600084F83530002384F83430236D002B7FD067
:103B7000204698477CE0A36C002BE5D1E9E7E36B96
:103B8000C3B12046984715E01000024028000240CB
:103B90001A6812F4807F09D11A6822F010021A60A4
:103BA000012384F83530002384F83430E36B0BB103
:103BB00020469847636D002B5AD0636D13F0010FB8
:103BC00052D0042384F8353023689649964A9342AC
:103BD00018BF8B422FD0183293422CD01832934208
:103BE00029D01832934226D01832934223D018326B
:103BF000934220D0183293421DD002F55672934260
:103C000019D01832934216D01832934213D018327A
:103C1000934210D0183293420DD0183293420AD0FA
:103C20001832934207D01832934204D01A6822F017
:103C300001021A6003E01A6822F001021A60019B77
:103C400001330193AB4204D823681B6813F0010FC2
:103C5000F5D123681B6813F0010F0BD0032384F800
:103C60003530002384F83430E36C0BB1204698479C
:103C700003B0F0BD012384F83530F2E7236C002B4C
:103C8000F6D020469847F3E712F0200F3AD1236888
:103C90006449654A934218BF8B422FD01832934231
:103CA0002CD01832934229D01832934226D01832A1
:103CB000934223D01832934220D0183293421DD021
:103CC00002F55672934219D01832934216D0183228
:103CD000934213D01832934210D0183293420DD031
:103CE000183293420AD01832934207D018329342C6
:103CF00004D01A6822F004021A6003E01A6822F065
:103D000008021A60236C002BB2D020469847AFE718
:103D10000220884010EA0C0F60D012F0020F5DD034
:103D2000786012F4004F0ED012F4803F05D1636C1E
:103D3000002B9DD0204698479AE7E36B002B97D045
:103D40002046984794E712F0200F40D12368354968
:103D5000354A934218BF8B422FD0183293422CD051
:103D60001832934229D01832934226D01832934207
:103D700023D01832934220D0183293421DD002F53E
:103D80005672934219D01832934216D01832934289
:103D900013D01832934210D0183293420DD01832FB
:103DA00093420AD01832934207D01832934204D07B
:103DB0001A6822F00A021A6003E01A6822F014025C
:103DC0001A60012384F83530002384F83430E36B23
:103DD000002B3FF44DAF2046984749E7082000FAF2
:103DE00001F111EA0C0F3FF443AF12F0080F3FF45A
:103DF0003FAF1A6822F00E021A60E36D03F01F0352
:103E0000012202FA03F37B60626584F83520002307
:103E100084F83430E36C002B3FF42AAF20469847F7
:103E200026E700BF1000024028000240406D7047A6
:103E3000F0B583B000236BE085685E000324B440D6
:103E400025EA0405CC68B4402C438460446824EA25
:103E50000C0C4C68C4F300149C4044EA0C0444600D
:103E600068E0DD08083550F8256003F007044FEAE4
:103E7000840C0F2404FA0CF426EA040E0C6904FAEC
:103E80000CF444EA0E0440F825406BE0092400E0FD
:103E9000002404FA0EF42C430CF1020C694D45F891
:103EA0002C404FF0B0442568D44325EA02064F6801
:103EB00017F4801F01D042EA05064FF0B0452E608E
:103EC0006D6804EA05064F6817F4001F01D042EA46
:103ED00005064FF0B0456E60D5F8845004EA05063B
:103EE0004F6817F4003F01D042EA05064FF0B04595
:103EF000C5F88460D5F880502C404E6816F4803F99
:103F000001D042EA05044FF0B042C2F880400133CC
:103F10000A6832FA03F400F092804FF0010C0CFAB8
:103F200003FC1CEA0202F2D04C6804F00304013CDA
:103F3000012C81D94C6804F00304032C0CD0C46814
:103F40005D004FF0030C0CFA05FC24EA0C0C8C68A5
:103F5000AC4044EA0C04C4604C6804F00304022C36
:103F60003FF47FAF04684FEA430E4FF0030C0CFAA6
:103F70000EFC24EA0C0C4C6804F0030404FA0EF462
:103F800044EA0C0404604C6814F4403FBFD02E4C4B
:103F9000D4F8F45045F00205C4F8F450D4F8F440D5
:103FA00004F002040194019C4FEA930C0CF1020509
:103FB000244C54F8255003F003044FEA840E0F24D8
:103FC00004FA0EF425EA0405204CA0423FF460AF49
:103FD00004F58064A04222D004F58064A04220D081
:103FE00004F58064A0421ED004F58064A0421CD079
:103FF00004F58064A0421AD004F58064A04218D071
:1040000004F58064A04216D004F58064A04214D068
:1040100004F58064A0423FF439AF0A2439E7012453
:1040200037E7022435E7032433E7042431E7052486
:104030002FE706242DE707242BE7082429E703B000
:10404000F0BD00BF000400580044025800000258B0
:104050000369194201D001207047002070470AB15E
:1040600081617047090481617047436901EA030275
:1040700021EA030141EA02418161704708B54FF02E
:10408000B043D3F88830034200D108BD4FF0B043AD
:10409000C3F88800FEF7C0F8F7E703689A6912F0E2
:1040A000020F01D000229A6203689A6912F0010F90
:1040B00003D19A6942F001029A61704710B4019CE1
:1040C000C1F3090141EA02411943214321F00041B2
:1040D00002685368640D04F4806444F07F7444F40F
:1040E000583444F47F7444F0030423EA0404214365
:1040F00051605DF8044B70472DE9F04104460368B8
:104100009E6916F010067ED00D4690461022DA61A8
:10411000002637462368986910F0200F32D18FBBF4
:10412000B5F1FF3FF6D0FEF7D5F9A0EB0800A842A5
:1041300001D8002DEED121684A6802F4804294F83B
:104140004230DBB2886910F4004F04D0203B18BF26
:10415000012302B973B923689B6913F0200FD9D1E9
:10416000FEF7B8F9A0EB08001928F4D946F02006AC
:104170000127CFE74B6843F480434B60FEF7AAF971
:104180008046E8E70FB92022DA6146F004060125EF
:104190002268936913F4807F05D046F001064FF43E
:1041A0008071D161012513F4806F06D046F00806B6
:1041B00022684FF48061D161012513F4007F24D07F
:1041C00046F0020623684FF40072DA6101252046AA
:1041D000FFF763FF2268536823F0FF7323F48B33E8
:1041E00023F4FF7323F001035360636C1E43666482
:1041F000202384F84130002384F8423084F8403092
:104200002846BDE8F0810025C2E7002DF8D0DEE7A2
:1042100070B504460D46164623689B6913F0020FDD
:1042200022D1324629462046FFF766FFF0B9B5F1A4
:10423000FF3FF1D0FEF74EF9801BA84201D8002DB8
:10424000EAD123689B6913F0020FE5D1636C43F058
:1042500020036364202384F84130002384F8423033
:1042600084F84030012000E0002070BD0120FCE710
:104270002DE9F04105460F46164698462C68A4697C
:1042800037EA04030CBF4FF0010C4FF0000CB445AB
:1042900022D1B8F1FF3FF1D0FEF71CF9069BC01AFE
:1042A000404502D8B8F1000FE8D12B689B6937EA86
:1042B00003030CBF01230023B342DFD16B6C43F037
:1042C00020036B64202385F84130002385F84230B9
:1042D00085F84030012000E00020BDE8F08170B595
:1042E00004460D46164604E023689B6913F0200F30
:1042F00012D023689B6913F0200F1BD13246294648
:104300002046FFF7F9FEB8B9FEF7E4F8801BA84293
:10431000EAD8002DEDD1E7E7636C43F02003636436
:10432000202384F84130002384F8423084F8403060
:10433000012000E0002070BD0120FCE770B50446BC
:104340000D4616462DE09A6912F0040F02D0228D18
:10435000002A4CD19A6912F0100F1AD01022DA619B
:104360000423636423682022DA6121684B6823F008
:10437000FF7323F48B3323F4FF7323F001034B60AB
:1043800084F84120002384F8423084F84030012131
:104390002DE000236364E5E723689B6913F0040FB5
:1043A00018D023689B6913F0040F1FD132462946A9
:1043B0002046FFF7A1FE0146D8B923689A6912F09A
:1043C000200FC0D1FEF786F8801BA842E4D8002D4C
:1043D000E7D1E1E7636C43F020036364202384F8B2
:1043E0004130002384F84030012100E000210846DC
:1043F00070BD0121FBE70000002857D010B504462E
:1044000090F84130002B41D0242384F841302268B9
:10441000136823F0010313606368226823F070635C
:1044200013612268936823F400439360E368012BCF
:1044300031D0A368226843F404439360E368022BFD
:104440002FD0226851681A4B0B4353602268D368FF
:1044500023F40043D360236962691343A16922688E
:1044600043EA0123D360E369216A22680B431360A6
:104470002268136843F00103136000206064202366
:1044800084F84130206384F8420010BD80F8403049
:10449000FDF726FBB8E7A368226843F40043936066
:1044A000CCE723684FF400625A60CAE701207047E6
:1044B000008000022DE9F04782B00F460A9E90F876
:1044C0004110C9B2202940F0A38004469046994685
:1044D00090F84030012B00F09F804FF0010A80F8E7
:1044E00040A0FDF7F7FF05460090192352464FF410
:1044F00000412046FFF7BCFE002840F08F802123BA
:1045000084F84130102384F8423000236364C4F8F7
:104510002480A4F82A906363638D9BB2FF2B0AD991
:10452000FF222285414B00934FF08073394620468D
:10453000FFF7C4FD18E0628D92B222853B4B0093D9
:104540004FF00073D2B239462046FFF7B7FD0BE0BB
:10455000628D92B22285002300934FF00073D2B295
:1045600039462046FFF7AAFD638D9BB2002B33D05E
:104570002A4631462046FFF74BFE002850D1626A9A
:10458000236812789A62636A01336362638D9BB217
:10459000013B9BB26385238D013B9BB22385628DDA
:1045A00092B2002AE0D0002BDED1009533460022E3
:1045B00080212046FFF75CFEA0BB638D9BB2FF2BE2
:1045C000C6D9FF222285002300934FF0807339461D
:1045D0002046FFF773FDC7E72A4631462046FFF71E
:1045E0007EFE08BB23682022DA6121684B6823F035
:1045F000FF7323F48B3323F4FF7323F001034B6029
:1046000084F84120002384F8423084F8403000E0F0
:10461000022002B0BDE8F0870220FAE70120F8E7A7
:104620000120F6E70120F4E70120F2E700200080F6
:104630002DE9F04782B00F460A9E90F84110C9B2AA
:10464000202940F0A28004469046994690F84030D8
:10465000012B00F09E804FF0010A80F840A0FDF78A
:1046600039FF05460090192352464FF40041204679
:10467000FFF7FEFD002840F08E80222384F84130B1
:10468000102384F8423000236364C4F82480A4F823
:104690002A906363638D9BB2FF2B0AD9FF22228588
:1046A000414B00934FF0807339462046FFF706FDDB
:1046B00018E0628D92B222853B4B00934FF000735D
:1046C000D2B239462046FFF7F9FC0BE0628D92B278
:1046D0002285002300934FF00073D2B23946204662
:1046E000FFF7ECFC638D9BB2002B32D02A4631469B
:1046F0002046FFF723FE00284FD123685A6A636AD9
:104700001A70636A01336362228D013A92B2228584
:10471000638D9BB2013B9BB26385638D9BB2002B83
:10472000E0D0002ADED10095334680212046FFF7F5
:104730009FFDA0BB638D9BB2FF2BC7D9FF222285B3
:10474000002300934FF0807339462046FFF7B6FCF4
:10475000C8E72A4631462046FFF7C1FD08BB23685B
:104760002022DA6121684B6823F0FF7323F48B3336
:1047700023F4FF7323F001034B6084F841200023EE
:1047800084F8423084F8403000E0022002B0BDE8F6
:10479000F0870220FAE70120F8E70120F6E7012080
:1047A000F4E70120F2E700BF0024008090F84130D8
:1047B000DBB2202B24D190F84030012B22D00123F2
:1047C00080F84030242380F841300268136823F0D9
:1047D000010313600268136823F4805313600268B6
:1047E0001368194311600268136843F001031360F2
:1047F000202380F84130002380F84030184670476D
:10480000022070470220704790F84130DBB2202B25
:1048100022D190F84030012B20D0012380F8403085
:10482000242380F841300268136823F001031360E9
:104830000268136823F4706343EA0121116002687F
:10484000136843F001031360202380F841300023F4
:1048500080F84030184670470220704702207047A9
:10486000C368016902680B43D360436982691343DB
:10487000C2691343026A1343426A1343C26A134371
:10488000026B1343826A013A43EA824381680268F9
:104890000B4313614368B3F1804F1BD003680022C0
:1048A0005A61436B93421BDB02689BB21362836BBA
:1048B000002B20DB01680A6A42EA03430B6243686B
:1048C000B3F1804F24D00268DBB293620368002208
:1048D0005A6270470268136943F040431361DDE791
:1048E0000268536943F480235361436B5B4202685F
:1048F0009BB21362DBE70268536943F40023536100
:10490000836B5A4201680B6A43EA02430B62D6E7A3
:10491000036800229A62D9E738B50446FDF7DAFD4C
:1049200044B30546002384F83C30022384F83D302C
:104930002268D36823F00103D3602368DB6813F097
:10494000010F0BD0FDF7C6FD431B052BF5D9402306
:10495000A366032384F83D3001200AE02046FFF7D8
:104960007FFF0020E06520666066A066012384F872
:104970003D3038BD0120FCE768B3034690F83C00A9
:1049800001282AD0012083F83C0093F83D00C0B2F2
:10499000012804D00120002283F83C20704730B465
:1049A0001C68256915F0804F09D12163186842639E
:1049B00051B919680A6922F000420A6100200022F8
:1049C00083F83C2030BC704719680A6942F0004205
:1049D0000A610020F3E701207047022070470000C1
:1049E00030B583B000230193674B1D68674BA3FB71
:1049F00005350168664B0B44C3F38413012202FAA8
:104A000003F34FF0A44212681A4200F0A580044656
:104A1000AD0A0B6813F0010F2FD0CB6813F0020F13
:104A20002BD0CB6823F00203CB600268936813F0AD
:104A3000800F40F09380816E41F00101816613F494
:104A4000007F03D0A16E41F00401A16613F4807FC2
:104A500003D0A16E41F00801A16613F4806F03D06A
:104A6000A16E41F01001A16613F4006F03D0A36E94
:104A700043F02003A3660123536023681A6812F0F1
:104A8000100F09D0DA6812F0200F05D010225A60FA
:104A9000A36C0BB12046984723681A6812F0080FE0
:104AA00009D0DA6812F0100F05D008225A60E36CC2
:104AB0000BB12046984723681A6812F0040F09D0FA
:104AC000DA6812F0080F05D004225A60236D0BB18A
:104AD0002046984723681A6812F0020F19D0DA6846
:104AE00012F0040F15D0DA6822F03E02DA6094F872
:104AF0003D30DBB2042B36D0236802225A600023FB
:104B000084F83C30012384F83D30636C0BB12046BF
:104B10009847A36E03B3042384F83D302268D3681A
:104B200023F00103D360019B01330193AB4204D80E
:104B30002368DB6813F0010FF5D1002384F83C30C3
:104B40002368DB6813F0010F19D0032384F83D308C
:104B5000636D0BB12046984703B030BD816E41F0C4
:104B6000020181666BE7002384F83C30012384F85E
:104B70003D30A36D002BEFD020469847ECE7012392
:104B800084F83D30E4E700BF0C000024B5814E1BE3
:104B9000C0FFFFAD134BDB6813F0040F07D1114BBF
:104BA000DB6803F0070383421AD00120704710B579
:104BB0000C4AD36823F007031843D060FDF78AFC42
:104BC0000446084B5B6813F4005F07D1FDF782FCD5
:104BD000001BB0F57A7FF4D9012000E0002010BD61
:104BE00000207047004802582DE9F84305460F465B
:104BF00016469946DDF820802C68A4683C4214BF14
:104C00004FF0010C4FF0000CB44514D0B8F1FF3F49
:104C1000F2D0FDF75FFCA0EB0900404502D8B8F1E7
:104C2000000FE9D1042385F841306B6C43F0010398
:104C30006B64012000E00020BDE8F88381647047C8
:104C400070B582B00446FDF745FC002C45D0064601
:104C500094F84130002B37D025682A6822F4F852A6
:104C6000A168013942EA01222A60A36C009333460D
:104C7000002220212046FFF7B7FF18BB21680B68F0
:104C8000174A1A406568E36843EA0563E5692B4300
:104C9000256A2B4313430B6021684A68114B13406C
:104CA0002569626942EA0542A5692A4313434B60BC
:104CB0002268136843F00103136000236364012337
:104CC00084F8413002B070BD2046FCF797FF41F2F6
:104CD00088312046FFF7B2FFBEE70120F2E700BFB0
:104CE0002FFFFF00FEF8E0FF002800F0398338B501
:104CF0000446036813F0010F25D0944A136903F0AA
:104D00003803926A102B15D0182B0FD06368B3F5B7
:104D1000803F3FD0002B53D18C4B1A6822F4803255
:104D20001A601A6822F480221A6038E002F0030246
:104D3000022AEBD1854B1B6813F4003F03D0636854
:104D4000002B00F00F83236813F0020F00F0A18006
:104D50007E4A1369926A13F038035AD0182B55D043
:104D6000E368002B00F0DE8078490A6822F019021F
:104D700013430B60FDF7AEFB0546744B1B6813F045
:104D8000040F40F0AD80FDF7A5FB401B0228F4D9CD
:104D90000320EEE26D4A136843F4803313606368C6
:104DA0002BB3FDF797FB0546684B1B6813F4003FD8
:104DB000C9D1FDF78FFB401B6428F5D90320D8E249
:104DC000B3F5A02F09D0614B1A6822F480321A6023
:104DD0001A6822F480221A60E1E75C4B1A6842F4F8
:104DE00080221A601A6842F480321A60D7E7FDF711
:104DF00071FB0546554B1B6813F4003FA3D0FDF72C
:104E000069FB401B6428F5D90320B2E212F0030FBE
:104E1000A6D14E4B1B6813F0040F03D0E368002BA0
:104E200000F0A282494A136823F01903E1680B439A
:104E30001360FDF74FFB0546444B1B6813F0040F4E
:104E400006D1FDF747FB401B0228F5D9032090E26D
:104E5000FDF75AFB41F20303984212D82269402A17
:104E600007D03A494B6823F47C3343EA02334B6062
:104E70000FE0364A536823F47C3343F40033536025
:104E800007E0324A536823F0FE43216943EA016395
:104E90005360236813F0100F00F088802B4A1369C9
:104EA00003F03803926A082B56D0182B50D0E369D0
:104EB000002B00F0B880254A136843F0800313608C
:104EC000FDF708FB0546214B1B6813F4807F40F07B
:104ED0008880FDF7FFFA401B0228F4D9032048E23E
:104EE000FDF712FB41F20303984212D82269402ACF
:104EF00007D016494B6823F47C3343EA02334B60F6
:104F0000C7E7124A536823F47C3343F400335360F9
:104F1000BFE70E4A536823F0FE43216943EA016369
:104F20005360B6E7094A136823F001031360FDF7E5
:104F3000D1FA0546054B1B6813F0040FA9D0FDF705
:104F4000C9FA401B0228F5D9032012E20044025896
:104F500002F00302012AAAD1A14B1B6813F4807F3F
:104F600003D0E369802B40F00182FDF7CDFA41F2D6
:104F70000303984212D8226A202A07D098494B6826
:104F800023F0F84343EA82634B600FE0944A53688E
:104F900023F0F84343F08043536007E0904AD3681E
:104FA00023F07C53216A43EA0163D360236813F042
:104FB000080F60D06369002B49D0894A536F43F0D2
:104FC00001035367FDF786FA0546854B5B6F13F0C7
:104FD000020F50D1FDF77EFA401B0228F5D90320BD
:104FE000C7E1FDF791FA41F20303984212D8226A11
:104FF000202A07D07A494B6823F0F84343EA8263BA
:105000004B60D3E7764A536823F0F84343F080437C
:105010005360CBE7724AD36823F07C53216A43EA9A
:105020000163D360C2E76E4A136823F08003136004
:10503000FDF750FA05466A4B1B6813F4807FB5D024
:10504000FDF748FA401B0228F5D9032091E1644A94
:10505000536F23F001035367FDF73CFA0546604B9D
:105060005B6F13F0020F06D0FDF734FA401B0228E5
:10507000F5D903207DE1236813F0200F29D0A3691F
:105080009BB1574A136843F480531360FDF722FA2B
:105090000546534B1B6813F4005F1AD1FDF71AFA4B
:1050A000401B0228F5D9032063E14D4A136823F41D
:1050B00080531360FDF70EFA0546494B1B6813F445
:1050C000005F06D0FDF706FA401B0228F5D9032041
:1050D0004FE1236813F0040F21D1636A002B00F025
:1050E00047813F4A126902F03802182A00F0EE8028
:1050F000022B79D03A4A136823F080731360FDF7CE
:10510000E9F90446364B1B6813F0007F00F0DC80A1
:10511000FDF7E0F9001B0228F4D9032029E1314A08
:10512000136843F480731360FDF7D4F905462D4BE3
:105130001B6813F4807F06D1FDF7CCF9401B64286F
:10514000F5D9032015E1A368012B0AD00BBB244B32
:105150001A6F22F001021A671A6F22F004021A670E
:1051600004E01F4A136F43F001031367A36833B3CE
:10517000FDF7B0F905461A4B1B6F13F0020FACD1C7
:10518000FDF7A8F9401B41F288339842F3D9032078
:10519000EFE0052B09D0124B1A6F22F001021A67BB
:1051A0001A6F22F004021A67E0E70D4B1A6F42F003
:1051B00004021A671A6F42F001021A67D6E7FDF778
:1051C00089F90546064B1B6F13F0020F85D0FDF7DA
:1051D00081F9401B41F288339842F3D90320C8E09B
:1051E0000044025800480258694A136823F080734B
:1051F0001360FDF76FF90546654B1B6813F0007FE0
:1052000006D0FDF767F9401B0228F5D90320B0E06E
:105210005F4B996A5F4A0A40A16AE06A41EA00115D
:105220000A439A62226B013AC2F30802616B0139A8
:10523000490289B20A43A16B0139090401F4FE0154
:105240000A43E16B0139090601F0FE410A431A6382
:10525000DA6A22F00102DA62596B4F4A0A40A16C05
:1052600042EAC1025A63DA6A22F00C02216C0A4354
:10527000DA62DA6A22F00202616C0A43DA62DA6AFE
:1052800042F48032DA62DA6A42F40032DA62DA6ACE
:1052900042F48022DA62DA6A42F00102DA621A68C3
:1052A00042F080721A60FDF715F90446384B1B680E
:1052B00013F0007F06D1FDF70DF9001B0228F5D988
:1052C000032056E0002054E0002052E0304A916A6A
:1052D000106B012B4ED001F00303A26A93424BD115
:1052E000C1F30511E36A994248D1C0F30802236B68
:1052F000013B9A4244D1C0F34622636B013B9A4280
:1053000040D1C0F30642A36B013B9A423CD1C0F3AB
:105310000660E36B013B984238D11D4B5B6BC3F3D6
:10532000CC03A26C9A4201D1002022E0184AD36A31
:1053300023F00103D362FDF7CDF80546FDF7CAF867
:10534000A842FBD0124A516B134B0B40A16C43EAAD
:10535000C1035363D36A43F00103D362002008E022
:1053600001207047012004E0012002E0012000E05C
:10537000002038BD0120FCE70120FAE70120F8E712
:105380000120F6E70120F4E70120F2E70120F0E731
:10539000004402580CFCFFFF0700FFFF744B1B6921
:1053A00003F03803102B00F0DE80182B10D00BB167
:1053B000704870476E4B1B6813F0200F00F0D580CB
:1053C0006B4B1868C0F3C1006B4B23FA00F07047B9
:1053D00010B4674A916A01F00301946AC4F305109E
:1053E000D36A03F0010C536BC3F3CC030CFB03F340
:1053F00007EE903AF8EE677A14F47C7F00F0938021
:10540000012965D0022900F09180E1B107EE100A70
:10541000F8EE476A9FED596A86EE267A544B1B6B6D
:10542000C3F3080306EE903AF8EE666A9FED546AFD
:1054300067EE867A76EEA77AF7EE006A77EEA67ABE
:1054400027EE277A60E0136813F0200F23D011466F
:105450001268C2F3C102484BD34007EE103AF8EE8F
:10546000476A07EE100AB8EE476A86EE867A0B6B3B
:10547000C3F3080306EE903AF8EE666A9FED406AC1
:1054800067EE867A76EEA77AF7EE006A77EEA67A6E
:1054900027EE277A38E007EE100AF8EE476A9FED0C
:1054A000396A86EE267A324B1B6BC3F3080306EE8D
:1054B000903AF8EE666A9FED326A67EE867A76EE8B
:1054C000A77AF7EE006A77EEA67A27EE277A1BE036
:1054D00007EE100AF8EE476A9FED286A86EE267AF4
:1054E000234B1B6BC3F3080306EE903AF8EE666A93
:1054F0009FED236A67EE867A76EEA77AF7EE006A6A
:1055000077EEA67A27EE277A194B1B6BC3F3462357
:10551000013307EE903AF8EE677AC7EE276AFCEEA1
:10552000E67A17EE900A5DF8044B704707EE100A12
:10553000F8EE476A9FED146A86EE267A0C4B1B6BD9
:10554000C3F3080306EE903AF8EE666A9FED0C6A24
:1055500067EE867A76EEA77AF7EE006A77EEA67A9D
:1055600027EE277AD0E7094870470348704700BF05
:105570000044025800093D000090D0030024744A02
:10558000000000390024744C20BCBE4B40787D01E3
:10559000002800F0328170B50D4604469B4B1B6815
:1055A00003F00F038B420BD2984A136823F00F03CA
:1055B0000B431360136803F00F038B4240F01F810D
:1055C000236813F0040F0CD02269914B9B6903F000
:1055D00070039A4205D98E498B6923F070031A43F0
:1055E0008A61236813F0080F0CD06269884BDB696D
:1055F00003F070039A4205D98549CB6923F0700303
:105600001A43CA61236813F0100F0CD0A269804BB3
:10561000DB6903F4E0639A4205D97D49CB6923F441
:10562000E0631A43CA61236813F0200F0CD0E269CB
:10563000774B1B6A03F070039A4205D974490B6AD1
:1056400023F070031A430A62236813F0020F0CD090
:10565000E2686F4B9B6903F00F039A4205D96C49CE
:105660008B6923F00F031A438A61236813F0010F3B
:1056700041D0674A936923F47063A1680B43936137
:105680006368022B0AD0032B27D0012B2CD0604A51
:10569000126812F0040F06D10120ADE0126812F476
:1056A000003F00F0AE805A490A6922F00702134316
:1056B0000B61FCF70FFF0646554B1B6903F03803DF
:1056C0006268B3EBC20F16D0FCF704FF801B41F2F7
:1056D00088339842F0D903208EE04D4A126812F0C8
:1056E000007FE0D1012087E0494A126812F4807FF0
:1056F000D9D1012080E0236813F0020F0CD0E268BA
:10570000434B9B6903F00F039A4205D240498B69D2
:1057100023F00F031A438A613C4B1B6803F00F030D
:10572000AB420AD9394A136823F00F032B431360A5
:10573000136803F00F03AB4265D1236813F0040F25
:105740000CD02269324B9B6903F070039A4205D258
:105750002F498B6923F070031A438A61236813F081
:10576000080F0CD062692A4BDB6903F070039A4280
:1057700005D22749CB6923F070031A43CA61236815
:1057800013F0100F0CD0A269214BDB6903F4E06326
:105790009A4205D21E49CB6923F4E0631A43CA61D9
:1057A000236813F0200F0CD0E269194B1B6A03F039
:1057B00070039A4205D216490B6A23F070031A430C
:1057C0000A62FFF7EBFD12498B69C3F30323114A09
:1057D000D35C03F01F03D8408B6903F00F03D35C45
:1057E00003F01F0320FA03F30B4A13600B4B1860FE
:1057F0000B4B1868FCF70CFE70BD012070470120B0
:10580000FAE70120F8E70120F6E700BF0020005288
:1058100000440258B4570108100000240C00002472
:105820001800002408B5FFF7B9FD0B4A9369C3F3CC
:1058300003230A49CB5C03F01F0320FA03F39269A8
:1058400002F00F02885C00F01F0023FA00F0044A07
:105850001060044A136008BD00440258B4570108A0
:10586000100000240C00002408B5FFF7DBFF054BF7
:10587000DB69C3F30213044AD35C03F01F03D8406F
:1058800008BD00BF00440258B457010808B5FFF72F
:10589000C9FF054BDB69C3F30223044AD35C03F061
:1058A0001F03D84008BD00BF00440258B457010888
:1058B000404B9B6A03F00303032B79D070B5054678
:1058C0000E463C4A136823F080631360FCF702FE27
:1058D0000446384B1B6813F0006F06D0FCF7FAFD46
:1058E000031B022BF5D9032070BD324B9A6A22F4B8
:1058F0007C32296842EA01329A626A68013AC2F34C
:105900000802A9680139490289B20A43E9680139E4
:10591000090401F4FE010A4329690139090601F06D
:10592000FE410A439A63DA6A22F0C00269690A43B7
:10593000DA62DA6A22F02002A9690A43DA62DA6AD4
:1059400022F01002DA62D96B1B4A0A40E96942EA86
:10595000C102DA63DA6A42F01002DA62C6B91A46A4
:10596000DB6A43F40023D362124A136843F0806376
:105970001360FCF7AFFD04460E4B1B6813F0006F7D
:1059800014D1FCF7A7FD001B0228F5D90320ABE7D3
:10599000012E05D0074AD36A43F40013D362E3E72C
:1059A000044AD36A43F48013D362DDE700209BE707
:1059B00001207047004402580700FFFF404B9B6ADC
:1059C00003F00303032B79D070B505460E463C4A1D
:1059D000136823F080531360FCF77CFD0446384BBA
:1059E0001B6813F0005F06D0FCF774FD031B022B4D
:1059F000F5D9032070BD324B9A6A22F07C72296877
:105A000042EA01529A626A68013AC2F30802A9683E
:105A10000139490289B20A43E9680139090401F4EC
:105A2000FE010A4329690139090601F0FE410A43D2
:105A30001A64DA6A22F4406269690A43DA62DA6A4D
:105A400022F40072A9690A43DA62DA6A22F48072E7
:105A5000DA62596C1B4A0A40E96942EAC1025A6497
:105A6000DA6A42F48072DA62C6B91A46DB6A43F433
:105A70008003D362124A136843F080531360FCF72B
:105A800029FD04460E4B1B6813F0005F14D1FCF790
:105A900021FD001B0228F5D90320ABE7012E05D01C
:105AA000074AD36A43F08073D362E3E7044AD36AB8
:105AB00043F40003D362DDE700209BE70120704739
:105AC000004402580700FFFFF8B50446036813F0CE
:105AD000006F30D0836EB3F5001F26D00ED8EBB127
:105AE000B3F5801F07D102210830FFF7E1FE05461C
:105AF00045B12E4621E0012635461EE0B3F5401F94
